{
  "_format": "hh-sol-artifact-1",
  "contractName": "CakeFactory",
  "sourceName": "contracts/CakeFactory.sol",
  "abi": [
    {
      "inputs": [
        {
          "internalType": "address",
          "name": "_router",
          "type": "address"
        },
        {
          "internalType": "address",
          "name": "_poolManager",
          "type": "address"
        },
        {
          "internalType": "address",
          "name": "_permit2",
          "type": "address"
        }
      ],
      "stateMutability": "nonpayable",
      "type": "constructor"
    },
    {
      "inputs": [],
      "name": "AmountTooLarge",
      "type": "error"
    },
    {
      "inputs": [
        {
          "internalType": "uint128",
          "name": "cakeId",
          "type": "uint128"
        }
      ],
      "name": "CakeDoesNotExist",
      "type": "error"
    },
    {
      "inputs": [
        {
          "internalType": "uint128",
          "name": "cakeId",
          "type": "uint128"
        }
      ],
      "name": "CakeInactive",
      "type": "error"
    },
    {
      "inputs": [
        {
          "internalType": "uint64",
          "name": "memberId",
          "type": "uint64"
        }
      ],
      "name": "DuplicateMember",
      "type": "error"
    },
    {
      "inputs": [
        {
          "internalType": "uint128",
          "name": "cakeId",
          "type": "uint128"
        },
        {
          "internalType": "uint64",
          "name": "ingredientId",
          "type": "uint64"
        }
      ],
      "name": "IngredientDoesNotExist",
      "type": "error"
    },
    {
      "inputs": [],
      "name": "InvalidBillingPeriod",
      "type": "error"
    },
    {
      "inputs": [],
      "name": "InvalidMembers",
      "type": "error"
    },
    {
      "inputs": [],
      "name": "InvalidWeights",
      "type": "error"
    },
    {
      "inputs": [
        {
          "internalType": "uint64",
          "name": "memberId",
          "type": "uint64"
        }
      ],
      "name": "MemberNotRegistered",
      "type": "error"
    },
    {
      "inputs": [
        {
          "internalType": "uint64",
          "name": "memberId",
          "type": "uint64"
        }
      ],
      "name": "NotMember",
      "type": "error"
    },
    {
      "inputs": [
        {
          "internalType": "uint128",
          "name": "cakeId",
          "type": "uint128"
        }
      ],
      "name": "NothingToCut",
      "type": "error"
    },
    {
      "inputs": [
        {
          "internalType": "address",
          "name": "owner",
          "type": "address"
        }
      ],
      "name": "OwnableInvalidOwner",
      "type": "error"
    },
    {
      "inputs": [
        {
          "internalType": "address",
          "name": "account",
          "type": "address"
        }
      ],
      "name": "OwnableUnauthorizedAccount",
      "type": "error"
    },
    {
      "inputs": [],
      "name": "ReentrancyGuardReentrantCall",
      "type": "error"
    },
    {
      "inputs": [
        {
          "internalType": "address",
          "name": "token",
          "type": "address"
        }
      ],
      "name": "SafeERC20FailedOperation",
      "type": "error"
    },
    {
      "anonymous": false,
      "inputs": [
        {
          "indexed": true,
          "internalType": "uint128",
          "name": "batchedCakeIngredientsId",
          "type": "uint128"
        },
        {
          "indexed": true,
          "internalType": "uint128",
          "name": "cakeId",
          "type": "uint128"
        }
      ],
      "name": "BatchedCakeIngredientsAdded",
      "type": "event"
    },
    {
      "anonymous": false,
      "inputs": [
        {
          "indexed": true,
          "internalType": "uint128",
          "name": "cakeId",
          "type": "uint128"
        }
      ],
      "name": "CakeCreated",
      "type": "event"
    },
    {
      "anonymous": false,
      "inputs": [
        {
          "indexed": true,
          "internalType": "uint128",
          "name": "cakeId",
          "type": "uint128"
        }
      ],
      "name": "CakeCutted",
      "type": "event"
    },
    {
      "anonymous": false,
      "inputs": [
        {
          "indexed": true,
          "internalType": "uint128",
          "name": "cakeId",
          "type": "uint128"
        }
      ],
      "name": "CakeDisabled",
      "type": "event"
    },
    {
      "anonymous": false,
      "inputs": [
        {
          "indexed": true,
          "internalType": "uint128",
          "name": "cakeId",
          "type": "uint128"
        }
      ],
      "name": "CakeEnabled",
      "type": "event"
    },
    {
      "anonymous": false,
      "inputs": [
        {
          "indexed": true,
          "internalType": "uint128",
          "name": "cakeId",
          "type": "uint128"
        },
        {
          "indexed": true,
          "internalType": "uint64",
          "name": "userId",
          "type": "uint64"
        },
        {
          "indexed": false,
          "internalType": "int256",
          "name": "amount",
          "type": "int256"
        }
      ],
      "name": "CakeSliceClaimed",
      "type": "event"
    },
    {
      "anonymous": false,
      "inputs": [
        {
          "indexed": true,
          "internalType": "uint128",
          "name": "cakeId",
          "type": "uint128"
        },
        {
          "indexed": true,
          "internalType": "uint64",
          "name": "userId",
          "type": "uint64"
        },
        {
          "indexed": false,
          "internalType": "int256",
          "name": "amount",
          "type": "int256"
        }
      ],
      "name": "CakeSlicePaid",
      "type": "event"
    },
    {
      "anonymous": false,
      "inputs": [
        {
          "indexed": true,
          "internalType": "address",
          "name": "previousOwner",
          "type": "address"
        },
        {
          "indexed": true,
          "internalType": "address",
          "name": "newOwner",
          "type": "address"
        }
      ],
      "name": "OwnershipTransferred",
      "type": "event"
    },
    {
      "inputs": [
        {
          "internalType": "uint128",
          "name": "cakeId",
          "type": "uint128"
        },
        {
          "internalType": "uint16[]",
          "name": "weights",
          "type": "uint16[]"
        },
        {
          "internalType": "uint64[]",
          "name": "payerIds",
          "type": "uint64[]"
        },
        {
          "internalType": "uint256[]",
          "name": "payedAmounts",
          "type": "uint256[]"
        }
      ],
      "name": "addBatchedCakeIngredients",
      "outputs": [
        {
          "internalType": "uint128",
          "name": "",
          "type": "uint128"
        }
      ],
      "stateMutability": "nonpayable",
      "type": "function"
    },
    {
      "inputs": [
        {
          "internalType": "uint128",
          "name": "",
          "type": "uint128"
        },
        {
          "internalType": "uint64",
          "name": "",
          "type": "uint64"
        }
      ],
      "name": "batchedIngredientsPerCake",
      "outputs": [
        {
          "internalType": "uint64",
          "name": "createdAt",
          "type": "uint64"
        }
      ],
      "stateMutability": "view",
      "type": "function"
    },
    {
      "inputs": [
        {
          "internalType": "uint128",
          "name": "",
          "type": "uint128"
        },
        {
          "internalType": "uint64",
          "name": "",
          "type": "uint64"
        }
      ],
      "name": "cakeMemberIndex",
      "outputs": [
        {
          "internalType": "uint64",
          "name": "",
          "type": "uint64"
        }
      ],
      "stateMutability": "view",
      "type": "function"
    },
    {
      "inputs": [
        {
          "internalType": "uint128",
          "name": "",
          "type": "uint128"
        }
      ],
      "name": "cakes",
      "outputs": [
        {
          "internalType": "uint64",
          "name": "createdAt",
          "type": "uint64"
        },
        {
          "internalType": "uint64",
          "name": "lastCutAt",
          "type": "uint64"
        },
        {
          "internalType": "uint64",
          "name": "lastCutBatchedIngredientsId",
          "type": "uint64"
        },
        {
          "internalType": "uint128",
          "name": "latestIngredientId",
          "type": "uint128"
        },
        {
          "internalType": "uint64",
          "name": "billingPeriod",
          "type": "uint64"
        },
        {
          "internalType": "uint64",
          "name": "nextDueAt",
          "type": "uint64"
        },
        {
          "internalType": "uint16",
          "name": "interestRate",
          "type": "uint16"
        },
        {
          "internalType": "bool",
          "name": "active",
          "type": "bool"
        },
        {
          "internalType": "address",
          "name": "token",
          "type": "address"
        }
      ],
      "stateMutability": "view",
      "type": "function"
    },
    {
      "inputs": [
        {
          "internalType": "uint128",
          "name": "cakeId",
          "type": "uint128"
        },
        {
          "internalType": "contract IERC20",
          "name": "token",
          "type": "address"
        }
      ],
      "name": "claimCakeSlice",
      "outputs": [],
      "stateMutability": "nonpayable",
      "type": "function"
    },
    {
      "inputs": [
        {
          "internalType": "address",
          "name": "token",
          "type": "address"
        },
        {
          "internalType": "uint64[]",
          "name": "memberIds",
          "type": "uint64[]"
        },
        {
          "internalType": "uint16[]",
          "name": "memberWeightsBps",
          "type": "uint16[]"
        },
        {
          "internalType": "uint16",
          "name": "interestRate",
          "type": "uint16"
        },
        {
          "internalType": "uint64",
          "name": "billingPeriod",
          "type": "uint64"
        }
      ],
      "name": "createCake",
      "outputs": [
        {
          "internalType": "uint128",
          "name": "",
          "type": "uint128"
        }
      ],
      "stateMutability": "nonpayable",
      "type": "function"
    },
    {
      "inputs": [
        {
          "internalType": "uint128",
          "name": "_cakeId",
          "type": "uint128"
        }
      ],
      "name": "cutCake",
      "outputs": [],
      "stateMutability": "payable",
      "type": "function"
    },
    {
      "inputs": [
        {
          "internalType": "uint128",
          "name": "cakeId",
          "type": "uint128"
        }
      ],
      "name": "getCakeDetails",
      "outputs": [
        {
          "internalType": "uint64[]",
          "name": "memberIds",
          "type": "uint64[]"
        },
        {
          "internalType": "int256[]",
          "name": "currentBalances",
          "type": "int256[]"
        },
        {
          "internalType": "uint16",
          "name": "interestRate",
          "type": "uint16"
        },
        {
          "internalType": "bool",
          "name": "active",
          "type": "bool"
        },
        {
          "internalType": "address",
          "name": "token",
          "type": "address"
        }
      ],
      "stateMutability": "view",
      "type": "function"
    },
    {
      "inputs": [
        {
          "internalType": "uint128",
          "name": "cakeId",
          "type": "uint128"
        },
        {
          "internalType": "uint64",
          "name": "ingredientId",
          "type": "uint64"
        }
      ],
      "name": "getCakeIngredientDetails",
      "outputs": [
        {
          "internalType": "uint16[]",
          "name": "weights",
          "type": "uint16[]"
        },
        {
          "internalType": "uint64[]",
          "name": "payerIds",
          "type": "uint64[]"
        },
        {
          "internalType": "uint256[]",
          "name": "payedAmounts",
          "type": "uint256[]"
        },
        {
          "internalType": "uint64",
          "name": "createdAt",
          "type": "uint64"
        }
      ],
      "stateMutability": "view",
      "type": "function"
    },
    {
      "inputs": [
        {
          "internalType": "uint128",
          "name": "cakeId",
          "type": "uint128"
        },
        {
          "internalType": "uint64",
          "name": "memberId",
          "type": "uint64"
        }
      ],
      "name": "getCakeMemberBalance",
      "outputs": [
        {
          "internalType": "int256",
          "name": "",
          "type": "int256"
        }
      ],
      "stateMutability": "view",
      "type": "function"
    },
    {
      "inputs": [
        {
          "internalType": "uint128",
          "name": "cakeId",
          "type": "uint128"
        }
      ],
      "name": "getCakeMemberConfig",
      "outputs": [
        {
          "internalType": "uint64[]",
          "name": "memberIds",
          "type": "uint64[]"
        },
        {
          "internalType": "uint16[]",
          "name": "memberWeights",
          "type": "uint16[]"
        }
      ],
      "stateMutability": "view",
      "type": "function"
    },
    {
      "inputs": [
        {
          "internalType": "uint128",
          "name": "cakeId",
          "type": "uint128"
        }
      ],
      "name": "getCakeMembers",
      "outputs": [
        {
          "internalType": "uint64[]",
          "name": "",
          "type": "uint64[]"
        }
      ],
      "stateMutability": "view",
      "type": "function"
    },
    {
      "inputs": [
        {
          "internalType": "address",
          "name": "token0",
          "type": "address"
        },
        {
          "internalType": "address",
          "name": "token1",
          "type": "address"
        }
      ],
      "name": "getPoolKey",
      "outputs": [
        {
          "components": [
            {
              "internalType": "Currency",
              "name": "currency0",
              "type": "address"
            },
            {
              "internalType": "Currency",
              "name": "currency1",
              "type": "address"
            },
            {
              "internalType": "uint24",
              "name": "fee",
              "type": "uint24"
            },
            {
              "internalType": "int24",
              "name": "tickSpacing",
              "type": "int24"
            },
            {
              "internalType": "contract IHooks",
              "name": "hooks",
              "type": "address"
            }
          ],
          "internalType": "struct PoolKey",
          "name": "",
          "type": "tuple"
        }
      ],
      "stateMutability": "view",
      "type": "function"
    },
    {
      "inputs": [
        {
          "internalType": "uint64",
          "name": "userId",
          "type": "uint64"
        }
      ],
      "name": "getUserAddress",
      "outputs": [
        {
          "internalType": "address",
          "name": "",
          "type": "address"
        }
      ],
      "stateMutability": "view",
      "type": "function"
    },
    {
      "inputs": [
        {
          "internalType": "uint64",
          "name": "userId",
          "type": "uint64"
        }
      ],
      "name": "getUserCakes",
      "outputs": [
        {
          "internalType": "uint128[]",
          "name": "",
          "type": "uint128[]"
        }
      ],
      "stateMutability": "view",
      "type": "function"
    },
    {
      "inputs": [
        {
          "internalType": "address",
          "name": "userAddress",
          "type": "address"
        }
      ],
      "name": "getUserId",
      "outputs": [
        {
          "internalType": "uint64",
          "name": "",
          "type": "uint64"
        }
      ],
      "stateMutability": "view",
      "type": "function"
    },
    {
      "inputs": [
        {
          "internalType": "uint128",
          "name": "cakeId",
          "type": "uint128"
        },
        {
          "internalType": "uint64",
          "name": "memberId",
          "type": "uint64"
        }
      ],
      "name": "isMember",
      "outputs": [
        {
          "internalType": "bool",
          "name": "",
          "type": "bool"
        }
      ],
      "stateMutability": "view",
      "type": "function"
    },
    {
      "inputs": [],
      "name": "owner",
      "outputs": [
        {
          "internalType": "address",
          "name": "",
          "type": "address"
        }
      ],
      "stateMutability": "view",
      "type": "function"
    },
    {
      "inputs": [
        {
          "internalType": "uint128",
          "name": "cakeId",
          "type": "uint128"
        },
        {
          "internalType": "contract IERC20",
          "name": "token",
          "type": "address"
        }
      ],
      "name": "payCakeSlice",
      "outputs": [],
      "stateMutability": "payable",
      "type": "function"
    },
    {
      "inputs": [],
      "name": "permit2",
      "outputs": [
        {
          "internalType": "contract IPermit2",
          "name": "",
          "type": "address"
        }
      ],
      "stateMutability": "view",
      "type": "function"
    },
    {
      "inputs": [],
      "name": "poolManager",
      "outputs": [
        {
          "internalType": "contract IPoolManager",
          "name": "",
          "type": "address"
        }
      ],
      "stateMutability": "view",
      "type": "function"
    },
    {
      "inputs": [
        {
          "internalType": "address",
          "name": "userAddress",
          "type": "address"
        }
      ],
      "name": "registerUser",
      "outputs": [
        {
          "internalType": "uint64",
          "name": "",
          "type": "uint64"
        }
      ],
      "stateMutability": "nonpayable",
      "type": "function"
    },
    {
      "inputs": [],
      "name": "renounceOwnership",
      "outputs": [],
      "stateMutability": "nonpayable",
      "type": "function"
    },
    {
      "inputs": [],
      "name": "router",
      "outputs": [
        {
          "internalType": "contract UniversalRouter",
          "name": "",
          "type": "address"
        }
      ],
      "stateMutability": "view",
      "type": "function"
    },
    {
      "inputs": [
        {
          "internalType": "address",
          "name": "token0",
          "type": "address"
        },
        {
          "internalType": "address",
          "name": "token1",
          "type": "address"
        },
        {
          "components": [
            {
              "internalType": "Currency",
              "name": "currency0",
              "type": "address"
            },
            {
              "internalType": "Currency",
              "name": "currency1",
              "type": "address"
            },
            {
              "internalType": "uint24",
              "name": "fee",
              "type": "uint24"
            },
            {
              "internalType": "int24",
              "name": "tickSpacing",
              "type": "int24"
            },
            {
              "internalType": "contract IHooks",
              "name": "hooks",
              "type": "address"
            }
          ],
          "internalType": "struct PoolKey",
          "name": "poolKey",
          "type": "tuple"
        }
      ],
      "name": "storePoolKey",
      "outputs": [],
      "stateMutability": "nonpayable",
      "type": "function"
    },
    {
      "inputs": [
        {
          "internalType": "address",
          "name": "",
          "type": "address"
        },
        {
          "internalType": "address",
          "name": "",
          "type": "address"
        }
      ],
      "name": "tokenPairPoolKeys",
      "outputs": [
        {
          "internalType": "Currency",
          "name": "currency0",
          "type": "address"
        },
        {
          "internalType": "Currency",
          "name": "currency1",
          "type": "address"
        },
        {
          "internalType": "uint24",
          "name": "fee",
          "type": "uint24"
        },
        {
          "internalType": "int24",
          "name": "tickSpacing",
          "type": "int24"
        },
        {
          "internalType": "contract IHooks",
          "name": "hooks",
          "type": "address"
        }
      ],
      "stateMutability": "view",
      "type": "function"
    },
    {
      "inputs": [],
      "name": "totalBatchedCakeIngredients",
      "outputs": [
        {
          "internalType": "uint128",
          "name": "",
          "type": "uint128"
        }
      ],
      "stateMutability": "view",
      "type": "function"
    },
    {
      "inputs": [],
      "name": "totalCakes",
      "outputs": [
        {
          "internalType": "uint128",
          "name": "",
          "type": "uint128"
        }
      ],
      "stateMutability": "view",
      "type": "function"
    },
    {
      "inputs": [],
      "name": "totalUsers",
      "outputs": [
        {
          "internalType": "uint64",
          "name": "",
          "type": "uint64"
        }
      ],
      "stateMutability": "view",
      "type": "function"
    },
    {
      "inputs": [
        {
          "internalType": "address",
          "name": "newOwner",
          "type": "address"
        }
      ],
      "name": "transferOwnership",
      "outputs": [],
      "stateMutability": "nonpayable",
      "type": "function"
    },
    {
      "inputs": [
        {
          "internalType": "uint64",
          "name": "",
          "type": "uint64"
        }
      ],
      "name": "userAddresses",
      "outputs": [
        {
          "internalType": "address",
          "name": "",
          "type": "address"
        }
      ],
      "stateMutability": "view",
      "type": "function"
    },
    {
      "inputs": [
        {
          "internalType": "uint64",
          "name": "",
          "type": "uint64"
        },
        {
          "internalType": "uint128",
          "name": "",
          "type": "uint128"
        }
      ],
      "name": "userCakes",
      "outputs": [
        {
          "internalType": "bool",
          "name": "",
          "type": "bool"
        }
      ],
      "stateMutability": "view",
      "type": "function"
    },
    {
      "inputs": [
        {
          "internalType": "address",
          "name": "",
          "type": "address"
        }
      ],
      "name": "userIds",
      "outputs": [
        {
          "internalType": "uint64",
          "name": "",
          "type": "uint64"
        }
      ],
      "stateMutability": "view",
      "type": "function"
    },
    {
      "stateMutability": "payable",
      "type": "receive"
    }
  ],
  "bytecode": "0x60e03461014157601f6141e238819003918201601f19168301916001600160401b03831184841017610145578084926060946040528339810103126101415761004781610159565b90610060604061005960208401610159565b9201610159565b90331561012e575f8054336001600160a01b0319821681178355604051959290916001600160a01b0316907f8be0079c531659141344cd1fd0a4f28419497f9722a3daafe3b4186f6b6457e09080a3600180556001600160a01b0390811660805290811660a0521660c052600a8054600b80546001600160801b03191690556001600160c01b0319169055614074908161016e82396080518181816101d201528181611e3e0152612ab1015260a0518161029d015260c051818181611dec01528181612a6601526130a80152f35b631e4fbdf760e01b5f525f60045260245ffd5b5f80fd5b634e487b7160e01b5f52604160045260245ffd5b51906001600160a01b03821682036101415756fe6080604052600436101561001a575b3615610018575f80fd5b005b5f803560e01c80630ed1e14d146131f0578063102275cc146130d757806312261ee7146130935780631b837ded14612f155780632199d5cd14612ee15780632b7a71dd14612ea65780632b956ff714612e655780634081db5114612e65578063616547f114612d8f5780636901b459146125f55780636da4606d146102f3578063715018a61461259b57806371c113151461213c57806372e1754c146119c757806375f595281461191357806376cc44d7146117d45780638bfe97c514610e975780638da5cb5b14610e705780639243fc6914610e125780639542bb0214610dab57806397714b4814610d4b5780639d05aa6f14610694578063a5055b431461050b578063a941ee4d14610472578063adc009ee14610414578063b0645d7f1461035b578063b7789c7414610334578063bd4d83ab146102f3578063bff1f9e1146102cc578063dc4c90d314610287578063f2fde38b14610201578063f887ea40146101bc5763f99e4ba114610190575061000e565b346101b957806003193601126101b95760206001600160801b03600a5460401c16604051908152f35b80fd5b50346101b957806003193601126101b9576040517f00000000000000000000000000000000000000000000000000000000000000006001600160a01b03168152602090f35b50346101b95760203660031901126101b95761021b613307565b610223613e3f565b6001600160a01b031680156102735781546001600160a01b03198116821783556001600160a01b03167f8be0079c531659141344cd1fd0a4f28419497f9722a3daafe3b4186f6b6457e08380a380f35b631e4fbdf760e01b82526004829052602482fd5b50346101b957806003193601126101b9576040517f00000000000000000000000000000000000000000000000000000000000000006001600160a01b03168152602090f35b50346101b957806003193601126101b95760206001600160401b03600a5416604051908152f35b50346101b95760203660031901126101b9576020906001600160401b036103186132ba565b16815260048252604060018060a01b0391205416604051908152f35b50346101b957806003193601126101b95760206001600160801b03600b5416604051908152f35b50346101b95760203660031901126101b9576040610120916001600160801b03610383613252565b16815260056020522080549060026001820154910154906001600160401b03604051938181168552818160401c16602086015260801c1660408401526001600160801b03811660608401526001600160401b038160801c16608084015260c01c60a083015261ffff811660c083015260ff8160101c16151560e083015260018060a01b039060181c16610100820152f35b50346101b95760403660031901126101b9576001600160401b036040610438613252565b926001600160801b036104496132a4565b9416815260096020522091165f5260205260206001600160401b0360405f205416604051908152f35b50346101b95760403660031901126101b957604061048e613307565b9161049761331d565b9260018060a01b031681526002602052209060018060a01b03165f5260205260a060405f20600180831b03815416906001810154906002600180861b039101541690604051928352600180851b038116602084015262ffffff81851c16604084015260b81c60020b60608301526080820152f35b50346101b95760e03660031901126101b957610525613307565b61052d61331d565b9060a03660431901126106905760405191610547836133ac565b6044356001600160a01b038116810361068c5783526064356001600160a01b038116810361068c576020840190815260843562ffffff81168103610688576040850190815260a435908160020b8203610684576060860191825260c435936001600160a01b038516850361068057600295608088019586526105c7613e3f565b81816001600160a01b0380831690821611610675575b50506001600160a01b03908116895260208781526040808b209383165f90815293909152909120965187549082166001600160a01b031991821617885593516001880180549351945160b81b62ffffff60b81b1662ffffff60a01b60a09690961b959095169183166001600160d01b031990941693909317179290921790559151939092018054939091169290911691909117905580f35b925090505f806105dd565b8780fd5b8680fd5b8580fd5b8480fd5b8280fd5b50346101b95760803660031901126101b9576106ae613252565b906024356001600160401b038111610d47576106ce903690600401613481565b916044356001600160401b038111610690576106ee903690600401613413565b6064356001600160401b038111610d435736602382011215610d4357806004013592610719846133fc565b9161072760405193846133db565b848352602083016024819660051b8301019136831161068057602401905b828210610d33575050506001600160801b031692838552600560205260408520956001600160401b0387541615610d1f5760ff600288015460101c1615610d0b5783518015908115610cff575b50610cf057805180610c7e5750506005860180546107af81613bf6565b91875b828110610c55575050505b855b8451811015610834576001600160401b036107da8287613b9c565b511680158015610804575b6107f257506001016107bf565b63d35edc1f60e01b8852600452602487fd5b508688526009602052604088206001600160401b0382165f526020526001600160401b0360405f205416156107e5565b50600187969593960160016001600160801b03825416016001600160801b038111610c4157906001600160801b036001600160401b0392166001600160801b0319825416178155541693600b546001600160801b03610894818316613bb0565b16906001600160801b03191617600b558386526006602052604086206001600160401b0386165f5260205260405f20916001600160401b03804216166001600160401b031984541617835560018301908051906001600160401b038211610c2d57600160401b8211610c2d576020908354838555808410610bd8575b5001918852602088208160041c91895b838110610b985750600f198116900380610b4b575b5050505060028201908051906001600160401b038211610b3757600160401b8211610b37576020908354838555808410610ae3575b5001918752602087208160021c91885b838110610a9e57506003198116900380610a45575b505050506003019451906001600160401b038211610a3157600160401b8211610a31578554828755808310610a16575b509484526020842094845b828110610a02576020868686817f5c1e2b802d1ef94d2ae4b924e8b531546db2cfe59c3986257eb800dc8b8c5cc66040519480a38152f35b6001906020835193019281890155016109ca565b86865260208620610a2b918101908401613be0565b866109bf565b634e487b7160e01b85526041600452602485fd5b928893895b818110610a60575050500155600387808061098f565b9091946020610a946001926001600160401b03895116908560031b6001600160401b03809160031b9316831b921b19161790565b9601929101610a4a565b898a5b60048110610ab657508382015560010161097a565b86519096916001916020916001600160401b0360068b901b81811b199092169216901b1792019601610aa1565b610b1090858b52838b20600380870160021c820192601888831b1680610b16575b500160021c0190613be0565b8a61096a565b610b31905f198601908154905f199060200360031b1c169055565b8f610b04565b634e487b7160e01b88526041600452602488fd5b9289938a5b818110610b6557505050015587808080610935565b9091946020610b8e60019261ffff8951169085851b61ffff809160031b9316831b921b19161790565b9601929101610b50565b8a8b5b60108110610bb0575083820155600101610920565b865190969160019160209161ffff60048b901b81811b199092169216901b1792019601610b9b565b610c0690858c52838c20600f80870160041c820192601e8860011b1680610c0c575b500160041c0190613be0565b8b610910565b610c27905f198601908154905f199060200360031b1c169055565b5f610bfa565b634e487b7160e01b89526041600452602489fd5b634e487b7160e01b87526011600452602487fd5b8061ffff610c6560019385613c49565b90549060031b1c16610c778287613b9c565b52016107b2565b60048895929693979498015403610ce157829683975b8651891015610cc057610cb860019161ffff610cb08c8b613b9c565b511690613b62565b980197610c94565b61271091949793969295985003156107bd5763108cef9d60e31b8652600486fd5b63108cef9d60e31b8352600483fd5b630592b4c160e21b8652600486fd5b9050835114155f610792565b636ca1ff8760e01b86526004859052602486fd5b63598756b160e11b86526004859052602486fd5b8135815260209182019101610745565b8380fd5b5080fd5b50346101b95760403660031901126101b9576001600160401b036040610d6f613252565b926001600160801b03610d806132a4565b9416815260096020522091165f5260205260206001600160401b0360405f2054161515604051908152f35b50346101b95760403660031901126101b957610dc56132ba565b90602435916001600160801b0383168303610d47576001600160801b03916001600160401b0360409216815260076020522091165f52602052602060ff60405f2054166040519015158152f35b50346101b95760403660031901126101b9576001600160401b036040610e36613252565b926001600160801b03610e476132a4565b9416815260066020522091165f5260205260206001600160401b0360405f205416604051908152f35b50346101b957806003193601126101b957546040516001600160a01b039091168152602090f35b50346101b95760a03660031901126101b957610eb1613307565b6024356001600160401b03811161069057610ed0903690600401613413565b916044356001600160401b038111610d4757610ef0903690600401613481565b906064359361ffff8516809503610d4757608435906001600160401b03821690818303610d43578051600281109081156117c8575b506117b95781156117aa57839684975b8651891015610f5957610f5160019161ffff610cb08c8b613b9c565b980197610f35565b61271088919796970361179b576110556001600160801b03600a54600160401b600160c01b03610f8d838360401c16613bb0565b60401b1690600160401b600160c01b0319161780600a5560401c169586895260056020526001600160401b0361103660408b2097610ffb83421684811685198c5416178b558a9067ffffffffffffffff60401b82549160401b169067ffffffffffffffff60401b1916179055565b8854608084811b19919091168a5560018a0180546001600160c01b0319169590911b67ffffffffffffffff60801b1694909417845542613b62565b82546001600160c01b0316911660c01b6001600160c01b031916179055565b6002840180546301000000600160b81b031962ffffff199190911690931762010000179290921660189190911b6301000000600160b81b03161790558051916110b66110a0846133fc565b936110ae60405195866133db565b8085526133fc565b6020840190601f1901368237600482019351906001600160401b038211610b3757600160401b8211610b37578454828655808310611747575b5090848852602088208160021c91895b838110611702575060031981169003806116aa575b505050506111228251613bf6565b805160058301916001600160401b038211610c2d57600160401b8211610c2d576020908354838555808410611656575b500190828952602089208160041c918a5b8381106116165750600f1981169003806115c9575b5050505082519161118b6110a0846133fc565b6020840190601f1901368237600682019351906001600160401b03821161157b57600160401b821161157b5784548286558083106115a3575b50848a5260208a208a5b83811061158f575050505083519060036111ea6110a0846133fc565b602084019290601f1901368437019151906001600160401b03821161157b57600160401b821161157b578254828455808310611529575b50918952602089208160051c918a5b8381106114e45750601f19811690038061149b575b5050505086959295926001600160801b038616935b875181101561146b576001600160401b03611275828a613b9c565b51168015801561144e575b61143c57878a52600960205260408a206001600160401b0382165f526020526001600160401b0360405f20541661142a57806112dd6112bf848a613c28565b81939154906001600160401b03809160031b9316831b921b19161790565b905561ffff6112ec8385613b9c565b51166113146112fb8487613c49565b819391549061ffff809160031b9316831b921b19161790565b90556113208286613ab5565b8154905f199060031b1b191690556001820180831161141657888b52600960205260408b206001600160401b0383165f526020526001600160401b038060405f209216166001600160401b0319825416179055808a52600760205260408a20865f5260205260405f20600160ff198254161790558952600860205260408920805490600160401b82101561140257600182018082558210156113ee5790600192918b5260208b2081841c0190608082549160071b16906001600160801b038b831b921b19161790550161125a565b634e487b7160e01b8b52603260045260248bfd5b634e487b7160e01b8b52604160045260248bfd5b634e487b7160e01b8b52601160045260248bfd5b63b65766e160e01b8a52600452602489fd5b632561b23b60e21b8a52600452602489fd5b50808a52600460205260408a20546001600160a01b031615611280565b60208988807f1fbdf49e7b4580db90f7157790537f52f1bc9ed3ad16759426c64096aedca1476040519380a28152f35b928a938b5b8181106114b557505050015587808080611245565b90919460206114da6001928489511515919060ff809160031b9316831b921b19161790565b96019291016114a0565b8b8c5b602081106114fc575083820155600101611230565b959060206115206001928985511515919060ff809160031b9316831b921b19161790565b920196016114e7565b61155490848c5260208c20601f80860160051c8201928187168061155a575b500160051c0190613be0565b8a611221565b611575905f198601908154905f199060200360031b1c169055565b8f611548565b634e487b7160e01b8a52604160045260248afd5b6001906020845194019381840155016111ce565b858b528260208c2091820191015b8181106115be57506111c4565b8b81556001016115b1565b928a938b5b8181106115e357505050015587808080611178565b909194602061160c60019261ffff8951169085851b61ffff809160031b9316831b921b19161790565b96019291016115ce565b8b8c5b6010811061162e575083820155600101611163565b865190969160019160209161ffff60048b901b81811b199092169216901b1792019601611619565b61168390858c52838c20600f80870160041c820192601e8860011b168061168957500160041c0190613be0565b8a611152565b6116a4905f198601908154905f199060200360031b1c169055565b8f610bfa565b9289938a5b8181106116c457505050015586808080611114565b90919460206116f86001926001600160401b03895116908560031b6001600160401b03809160031b9316831b921b19161790565b96019291016116af565b8a8b5b6004811061171a5750838201556001016110ff565b86519096916001916020916001600160401b0360068b901b81811b199092169216901b1792019601611705565b61177490868a5260208a20600380860160021c820192601887831b168061177a57500160021c0190613be0565b886110ef565b611795905f198601908154905f199060200360031b1c169055565b8d610b04565b63108cef9d60e31b8752600487fd5b633f1f6d2d60e01b8452600484fd5b630592b4c160e21b8452600484fd5b9050855114155f610f25565b50346101b95760203660031901126101b9576001600160401b036117f66132ba565b16808252600460205260408220546001600160a01b031615611901578152600860205260408120604051808160208454928381520180948652602086209286905b8060018301106118d2576118609454918181106118b8575b106118aa575b5093929303836133db565b604051928392602084019060208552518091526040840192915b818110611888575050500390f35b82516001600160801b031684528594506020938401939092019160010161187a565b60801c81526020015f611855565b9260206001916001600160801b038516815201930161184f565b916002919350604060019186546001600160801b038116825260801c6020820152019401920184929391611837565b632561b23b60e21b8252600452602490fd5b50346101b95760203660031901126101b9576001600160801b03611935613252565b16808252600560205260408220906001600160401b03825416156119b557506004810191600583549201918254036119a657506119a261198061197a611994946134ea565b926135f1565b604051938493604085526040850190613268565b9083820360208501526132d0565b0390f35b630592b4c160e21b8152600490fd5b63598756b160e11b8352600452602482fd5b506119d136613376565b6119d9613c6a565b33835260036020526119f96001600160401b036040852054161515613ade565b33835260036020526001600160801b036001600160401b036040852054169216908184526009602052604084206001600160401b0384165f526020526001600160401b0360405f205416801561212857611a5a6001600160401b0391613a97565b168285526005602052611a738160066040882001613ab5565b90549060031b1c91858312156120d7576001600160a01b0316600160ff1b83146120c35783865260056020526040862060020154838703919060181c6001600160a01b03168103611bc7575b80611b6057503410611b23577f25fcbdc702753d31d7fa9cfeaa4715deac953a437867a2a8432ee86a693c0e6491611b076020925b8588526005845260066040892001613ab5565b8154905f199060031b1b19169055604051908152a36001805580f35b60405162461bcd60e51b8152602060048201526015602482015274125b9cdd59999a58da595b9d08115512081cd95b9d605a1b6044820152606490fd5b602092611bc27f25fcbdc702753d31d7fa9cfeaa4715deac953a437867a2a8432ee86a693c0e649593611b0793604051916323b872dd60e01b88840152336024840152306044840152606483015260648252611bbd6084836133db565b613fc6565b611af4565b848752600560205260408720600201548790611bef9060181c6001600160a01b0316836139dd565b80516001600160a01b03161515806120ad575b611c0b90613b20565b868252600560205260018060a01b03600260408420015460181c1683106001600160801b03851691604051600160fc1b602082015260018152611c4f6021826133db565b611c57613c8a565b604051600160fb1b6020820152600360fa1b6021820152600f60f81b60228201526003815294909290611c8b6023876133db565b841561208957815160208301516001600160a01b039081169391169190611d0d90611d1b905b611cb9613cc4565b9a60209960405191611ccb8c846133db565b825260405192611cda846133ac565b83528a8301528460408301526001600160801b03606083015260808201526040519283918a808401526040830190613d22565b03601f1981018352826133db565b611d2489613b6f565b52611d2e88613b6f565b5061012c420180421161207457908f959493929165ffffffffffff611dc1911693604051611d7e81611d0d878d830160206001600160801b0391939293604081019460018060a01b031681520152565b611d878c613b7c565b52611d918b613b7c565b50604080516001600160a01b039092168a83019081526001600160801b0390941660208501529092839101611d0d565b611dca89613b8c565b52611dd488613b8c565b5060405163095ea7b360e01b81526001600160a01b037f00000000000000000000000000000000000000000000000000000000000000008116600483018190526001600160801b03602484015292169891979087816044818a8e5af1801561203757612042575b507f00000000000000000000000000000000000000000000000000000000000000006001600160a01b031697803b1561068457868960848c8360405195869485936387517c4560e01b8552600485015260248401526001600160801b0360448401528960648401525af1908115612037578791612022575b5050611eca90611d0d6040519384928a8401613dd5565b611ed384613b6f565b52611edd83613b6f565b506040516370a0823160e01b81523060048201529585876024818b5afa968715612017578597611fe4575b50803b1561068c57611f349385809460405196879586948593630d64d59360e21b855260048501613dfa565b03925af18015611fd957611fc0575b505080602493604051948580926370a0823160e01b82523060048301525afa908115611fb5578a91611f81575b50611f7b9250613e32565b50611abf565b905082813d8311611fae575b611f9781836133db565b81010312611faa57611f7b91515f611f70565b5f80fd5b503d611f8d565b6040513d8c823e3d90fd5b81611fca916133db565b611fd557895f611f43565b8980fd5b6040513d84823e3d90fd5b86809298508196503d8311612010575b611ffe81836133db565b81010312611faa578d9351955f611f08565b503d611ff4565b6040513d87823e3d90fd5b8161202c916133db565b61068857855f611eb3565b6040513d89823e3d90fd5b8781813d831161206d575b61205781836133db565b8101031261068457518015158114611e3b578680fd5b503d61204d565b50634e487b7160e01b8f52601160045260248ffd5b602082015182516001600160a01b039081169391169190611d0d90611d1b90611cb1565b5060208101516001600160a01b03161515611c02565b634e487b7160e01b86526011600452602486fd5b60405162461bcd60e51b815260206004820152602360248201527f5573657220686173206e6f206465627420696e207468652063616b6520746f2060448201526270617960e81b6064820152608490fd5b63d35edc1f60e01b85526004849052602485fd5b5060203660031901126101b9576001600160801b03612159613252565b168082526005602052604082209081546001600160401b038116156125875760ff600284015460101c16156125735733845260036020526001600160401b0360408520541680158015612543575b61253157506001600160401b039060801c1692600183019283546001600160801b03811680158015612527575b612513576001600160401b0310612504576001600160401b0360019116956121fb83613e80565b016001600160401b0381116124f05760068201959460048301915b6001600160401b03811687811161246557868652600660205260408620815f5260205260405f20906001600160401b038254161561244e575083549060018101918083540361243f57600282019081549384158015612431575b61242257899060038b9501945b8681106123fd57508d8b805b858110612391575093505050505b8381106122b057505050506122ab906138fb565b612216565b6001600160401b036122c28284613c28565b90549060031b1c168a8a52600960205260408a206001600160401b0382165f526020526001600160401b0360405f20541690811561237f57506123306001600160401b036123108f93613a97565b1661232a61231e8588613ab5565b90549060031b1c61401e565b92613ab5565b81929154808260031b1c8d848203941281851281169185139015161761236b575f1960039290921b91821b191691901b179055600101612297565b634e487b7160e01b8d52601160045260248dfd5b63d35edc1f60e01b8b5260045260248afd5b6123c06127106001936123b861ffff6123aa868a613c49565b90549060031b1c1689613bcd565b90500461401e565b6123f36123cd8386613ab5565b6123e08294925492838360031b1c613e65565b919060031b91821b915f19901b19161790565b9055018c90612289565b9161241b60019161240e8589613ab5565b90549060031b1c90613b62565b920161227d565b630592b4c160e21b8a5260048afd5b506003840154851415612270565b63108cef9d60e31b8852600488fd5b6317e7214f60e31b87526004889052602452604486fd5b845467ffffffffffffffff60801b60808a901b1677ffffffffffffffffffffffffffffffff00000000000000001990911667ffffffffffffffff60401b4260401b161717855585876124c9856001600160401b0361103681835460801c1642613b62565b7f8777a1f1bec59d7313d557b50cf6e83ca0e7ee87ee55edd94034ef35ac010d758280a280f35b634e487b7160e01b83526011600452602483fd5b630625040160e01b8352600483fd5b63245afb6f60e11b84526004859052602484fd5b50868111156121d4565b63d35edc1f60e01b8552600452602484fd5b508285526009602052604085206001600160401b0382165f526020526001600160401b0360405f205416156121a7565b636ca1ff8760e01b84526004829052602484fd5b63598756b160e11b84526004829052602484fd5b50346101b957806003193601126101b9576125b4613e3f565b80546001600160a01b03198116825581906001600160a01b03167f8be0079c531659141344cd1fd0a4f28419497f9722a3daafe3b4186f6b6457e08280a380f35b5034611faa5761260436613376565b61260c613c6a565b335f52600360205261262c6001600160401b0360405f2054161515613ade565b335f5260036020526001600160801b036001600160401b0360405f205416921690815f52600960205260405f206001600160401b0384165f526020526001600160401b0360405f2054168015612d7c5761268d6001600160401b0391613a97565b16825f5260056020526126a681600660405f2001613ab5565b90549060031b1c915f831315612d27575f848152600560205260409020600201546001600160a01b039182169160189190911c168103612858575b8061280157508147106127bc578480808085335af13d156127b7573d6001600160401b0381116127a35760405190612723601f8201601f1916602001836133db565b81528660203d92013e5b1561276d577fdee94a2032d2d1bc10c757d159efe2c902ac78910f9600eb5f20cd28bda7514c91611b076020928588526005845260066040892001613ab5565b60405162461bcd60e51b815260206004820152600e60248201526d14185e5b595b9d0819985a5b195960921b6044820152606490fd5b634e487b7160e01b87526041600452602487fd5b61272d565b60405162461bcd60e51b815260206004820152601d60248201527f496e73756666696369656e7420636f6e74726163742062616c616e63650000006044820152606490fd5b91611b07602092611bc27fdee94a2032d2d1bc10c757d159efe2c902ac78910f9600eb5f20cd28bda7514c956040519063a9059cbb60e01b8783015233602483015285604483015260448252611bbd6064836133db565b5f8481526005602052604090206002015461287f9060181c6001600160a01b0316826139dd565b80516001600160a01b0316151580612d11575b61289b90613b20565b845f52600560205260018060a01b03600260405f20015460181c1682106001600160801b03851690604051600160fc1b6020820152600181526128df6021826133db565b6128e7613c8a565b604051600360f91b6020820152600360fa1b6021820152600f60f81b60228201526003815290919061291a6023826133db565b8315612cf657855160208701516001600160a01b03918216979116915b611d0d61299a612945613cc4565b93602098604051906129578b836133db565b5f825260405192612967846133ac565b83528a8301528a60408301526001600160801b03606083015260808201526040519283918a808401526040830190613d22565b6129a383613b6f565b526129ad82613b6f565b5061012c4201804211612ce257604080516001600160a01b038b168982019081526001600160801b038b16602082015265ffffffffffff939093169a9290916129f891839101611d0d565b612a0184613b7c565b52612a0b83613b7c565b50604080516001600160a01b0386168982019081526001600160801b0360208201529091612a3b91839101611d0d565b612a4484613b8c565b52612a4e83613b8c565b5060405163095ea7b360e01b81526001600160a01b037f0000000000000000000000000000000000000000000000000000000000000000811660048301819052602483018b9052921698919088816044815f8e5af18015612ca557612cb0575b507f00000000000000000000000000000000000000000000000000000000000000006001600160a01b031698813b15611faa5760848a915f80948e60405197889687956387517c4560e01b875260048701526024860152604485015260648401525af18015612ca557612c83575b5090612b378e95949392611d0d6040519384928a8401613dd5565b612b4084613b6f565b52612b4a83613b6f565b506040516370a0823160e01b81523060048201526001600160a01b039190911696909585876024818b5afa968715612017578597612c50575b50803b1561068c57612baf9385809460405196879586948593630d64d59360e21b855260048501613dfa565b03925af18015611fd957612c37575b505080602493604051948580926370a0823160e01b82523060048301525afa908115612c2c578991612bfc575b50612bf69250613e32565b506126e1565b905082813d8311612c25575b612c1281836133db565b81010312611faa57612bf691515f612beb565b503d612c08565b6040513d8b823e3d90fd5b81612c41916133db565b612c4c57885f612bbe565b8880fd5b86809298508196503d8311612c7c575b612c6a81836133db565b81010312611faa578c9351955f612b83565b503d612c60565b612b379e505f612c98919695949392966133db565b5f9d949091929394612b1c565b6040513d5f823e3d90fd5b8881813d8311612cdb575b612cc581836133db565b81010312611faa57518015158114612aae575f80fd5b503d612cbb565b634e487b7160e01b5f52601160045260245ffd5b602086015186516001600160a01b0391821697911691612937565b5060208101516001600160a01b03161515612892565b60405162461bcd60e51b815260206004820152602760248201527f5573657220686173206e6f2063726564697420696e207468652063616b6520746044820152666f20636c61696d60c81b6064820152608490fd5b8363d35edc1f60e01b5f5260045260245ffd5b34611faa576040366003190112611faa57612da8613252565b6001600160801b03612db86132a4565b911690815f52600560205260405f20916001600160401b0383541615612e53575f52600960205260405f206001600160401b0382165f526020526001600160401b0360405f205416908115612e37576020612e288460066001600160401b03612e2087613a97565b169101613ab5565b90549060031b1c604051908152f35b6001600160401b039063d35edc1f60e01b5f521660045260245ffd5b63598756b160e11b5f5260045260245ffd5b34611faa576020366003190112611faa576001600160a01b03612e86613307565b165f52600360205260206001600160401b0360405f205416604051908152f35b34611faa576040366003190112611faa5760a0612ed2612ec4613307565b612ecc61331d565b906139dd565b612edf6040518092613333565bf35b34611faa576020366003190112611faa576020612f04612eff613307565b613918565b6001600160401b0360405191168152f35b34611faa576040366003190112611faa57612f2e613252565b6001600160801b03612f3e6132a4565b911690815f5260056020526001600160401b0360405f2054161561308057815f52600660205260405f206001600160401b0382165f5260205260405f20906001600160401b0382541692831561306057505060038101612fac6002612fa5600185016135f1565b93016134ea565b92604051938480956020855491828152019081955f5260205f20905f5b8181106130475750505091612fe56130079260209403886133db565b612ffa604051966080885260808801906132d0565b9086820384880152613268565b948486036040860152519485815201915f945b80861061302f57505082935060608301520390f35b9092602080600192865181520194019501949061301a565b8254845289945060209093019260019283019201612fc9565b6001600160401b0392506317e7214f60e31b5f526004521660245260445ffd5b5063598756b160e11b5f5260045260245ffd5b34611faa575f366003190112611faa576040517f00000000000000000000000000000000000000000000000000000000000000006001600160a01b03168152602090f35b34611faa576020366003190112611faa576001600160801b036130f8613252565b16805f52600560205260405f20906001600160401b0382541615612e5357506006810161312c6004600284015493016134ea565b9060405192838460208454928381520180945f5260205f20925f5b8181106131d757505061315c925003856133db565b60206131736040519460a0865260a0860190613268565b9484860382860152519485815201915f945b8086106131bf57505061ffff81166040840152601081901c60ff161515606084015260181c6001600160a01b031660808301528190039150f35b90926020806001928651815201940195019490613185565b8454835260019485019489945060209093019201613147565b34611faa576020366003190112611faa576001600160801b03613211613252565b16805f52600560205260405f20906001600160401b0382541615612e53576119a261323e600484016134ea565b604051918291602083526020830190613268565b600435906001600160801b0382168203611faa57565b90602080835192838152019201905f5b8181106132855750505090565b82516001600160401b0316845260209384019390920191600101613278565b602435906001600160401b0382168203611faa57565b600435906001600160401b0382168203611faa57565b90602080835192838152019201905f5b8181106132ed5750505090565b825161ffff168452602093840193909201916001016132e0565b600435906001600160a01b0382168203611faa57565b602435906001600160a01b0382168203611faa57565b80516001600160a01b03908116835260208083015182169084015260408083015162ffffff169084015260608083015160020b9084015260809182015116910152565b6040906003190112611faa576004356001600160801b0381168103611faa57906024356001600160a01b0381168103611faa5790565b60a081019081106001600160401b038211176133c757604052565b634e487b7160e01b5f52604160045260245ffd5b90601f801991011681019081106001600160401b038211176133c757604052565b6001600160401b0381116133c75760051b60200190565b9080601f83011215611faa5781359061342b826133fc565b9261343960405194856133db565b82845260208085019360051b820101918211611faa57602001915b8183106134615750505090565b82356001600160401b0381168103611faa57815260209283019201613454565b9080601f83011215611faa57813590613499826133fc565b926134a760405194856133db565b82845260208085019360051b820101918211611faa57602001915b8183106134cf5750505090565b823561ffff81168103611faa578152602092830192016134c2565b90604051918281549182825260208201905f5260205f20925f905b80600383011061359f5761353b945491818110613585575b818110613568575b81811061354b575b1061353d575b5003836133db565b565b60c01c81526020015f613533565b9260206001916001600160401b038560801c16815201930161352d565b9260206001916001600160401b038560401c168152019301613525565b9260206001916001600160401b038516815201930161351d565b916004919350608060019186546001600160401b03811682526001600160401b038160401c1660208301526001600160401b0381841c16604083015260c01c6060820152019401920185929391613505565b90604051918281549182825260208201905f5260205f20925f905b80600f8301106138135761353b9454918181106137fe575b8181106137e6575b8181106137cf575b8181106137b7575b81811061379f575b818110613787575b81811061376f575b818110613757575b81811061373f575b818110613727575b81811061370f575b8181106136f7575b8181106136df575b8181106136c7575b8181106136af575b106136a1575003836133db565b60f01c81526020015f613533565b92602060019161ffff8560e01c168152019301613694565b92602060019161ffff8560d01c16815201930161368c565b92602060019161ffff8560c01c168152019301613684565b92602060019161ffff8560b01c16815201930161367c565b92602060019161ffff8560a01c168152019301613674565b92602060019161ffff8560901c16815201930161366c565b92602060019161ffff8560801c168152019301613664565b92602060019161ffff8560701c16815201930161365c565b92602060019161ffff8560601c168152019301613654565b92602060019161ffff8560501c16815201930161364c565b92602060019161ffff8560401c168152019301613644565b92602060019161ffff8560301c16815201930161363c565b92602060019161ffff85831c168152019301613634565b92602060019161ffff8560101c16815201930161362c565b92602060019161ffff85168152019301613624565b916010919350610200600191865461ffff8116825261ffff81861c16602083015261ffff8160201c16604083015261ffff8160301c16606083015261ffff8160401c16608083015261ffff8160501c1660a083015261ffff8160601c1660c083015261ffff8160701c1660e083015261ffff8160801c1661010083015261ffff8160901c1661012083015261ffff8160a01c1661014083015261ffff8160b01c1661016083015261ffff8160c01c1661018083015261ffff8160d01c166101a083015261ffff8160e01c166101c083015260f01c6101e082015201940192018592939161360c565b6001600160401b03166001600160401b038114612ce25760010190565b6001600160a01b03165f818152600360205260409020546001600160401b03166139c557600a546001600160401b036139528183166138fb565b1680916001600160401b03191617600a55815f5260036020526001600160401b0360405f2091166001600160401b03198254161790556001600160401b03600a54165f52600460205260405f20906bffffffffffffffffffffffff60a01b8254161790556001600160401b03600a541690565b5f5260036020526001600160401b0360405f20541690565b5f60806040516139ec816133ac565b82815260208101839052604081018390526060810183905201526001600160a01b0382811690821611613a91575b60018060a01b03165f52600260205260405f209060018060a01b03165f5260205260405f2060405190613a4c826133ac565b80546001600160a01b0390811683526001820154808216602085015260a081901c62ffffff16604085015260b81c600290810b60608501529091015416608082015290565b90613a1a565b6001600160401b035f19911601906001600160401b038211612ce257565b8054821015613aca575f5260205f2001905f90565b634e487b7160e01b5f52603260045260245ffd5b15613ae557565b60405162461bcd60e51b8152602060048201526013602482015272155cd95c881b9bdd081c9959da5cdd195c9959606a1b6044820152606490fd5b15613b2757565b60405162461bcd60e51b8152602060048201526013602482015272141bdbdb081b9bdd0818dbdb999a59dd5c9959606a1b6044820152606490fd5b91908201809211612ce257565b805115613aca5760200190565b805160011015613aca5760400190565b805160021015613aca5760600190565b8051821015613aca5760209160051b010190565b6001600160801b03166001600160801b038114612ce25760010190565b81810292918115918404141715612ce257565b818110613beb575050565b5f8155600101613be0565b90613c00826133fc565b613c0d60405191826133db565b8281528092613c1e601f19916133fc565b0190602036910137565b9190918054831015613aca575f52601860205f208360021c019260031b1690565b9190918054831015613aca575f52601e60205f208360041c019260011b1690565b600260015414613c7b576002600155565b633ee5aeb560e01b5f5260045ffd5b60408051909190613c9b83826133db565b6001815291601f1901825f5b828110613cb357505050565b806060602080938501015201613ca7565b60405160809190613cd583826133db565b6003815291601f1901825f5b828110613ced57505050565b806060602080938501015201613ce1565b805180835260209291819084018484015e5f828201840152601f01601f1916010190565b906101206080613d7a93613d37848251613333565b6020810151151560a08501526001600160801b0360408201511660c08501526001600160801b0360608201511660e0850152015191816101008201520190613cfe565b90565b9080602083519182815201916020808360051b8301019401925f915b838310613da857505050505090565b9091929394602080613dc6600193601f198682030187528951613cfe565b97019301930191939290613d99565b9091613dec613d7a93604084526040840190613cfe565b916020818403910152613d7d565b91613e2b65ffffffffffff91613e1d604094979697606087526060870190613cfe565b908582036020870152613d7d565b9416910152565b91908203918211612ce257565b5f546001600160a01b03163303613e5257565b63118cdaa760e01b5f523360045260245ffd5b9190915f8382019384129112908015821691151617612ce257565b6002810161ffff815416158015613fae575b613faa5760018201548060c01c80421115613fa457613eb96001600160401b039142613e32565b9160801c168015613f905780820490819206613f7d575b508015613f75575b5f5b600684018054821015613f6e578181613ef7600694600194613ab5565b90549060031b1c8683875f841315613f6457613f5993613f37612710613f31613f3d94613f2c61ffff613f4399541686613bcd565b613bcd565b0461401e565b90613e65565b93613ab5565b819391549060031b91821b915f19901b19161790565b90555b019050613eda565b5050505050613f5c565b5050505050565b506001613ed8565b905060018101809111612ce2575f613ed0565b634e487b7160e01b5f52601260045260245ffd5b50505050565b5050565b506001600160401b03600183015460801c1615613e92565b905f602091828151910182855af115612ca5575f513d61401557506001600160a01b0381163b155b613ff55750565b635274afe760e01b5f9081526001600160a01b0391909116600452602490fd5b60011415613fee565b6001600160ff1b03811161402f5790565b630625040160e01b5f5260045ffdfea26469706673582212203da313a0d828ad4e47e5a083a9e91b279714b4a3e84240234e8f3271f1e6671564736f6c634300081a0033",
  "linkReferences": {},
  "deployedLinkReferences": {}
}