{
  "_format": "hh-sol-artifact-1",
  "contractName": "CakeFactory",
  "sourceName": "contracts/CakeFactory.sol",
  "abi": [
    {
      "inputs": [],
      "stateMutability": "nonpayable",
      "type": "constructor"
    },
    {
      "inputs": [],
      "name": "AmountTooLarge",
      "type": "error"
    },
    {
      "inputs": [
        {
          "internalType": "uint128",
          "name": "cakeId",
          "type": "uint128"
        }
      ],
      "name": "CakeDoesNotExist",
      "type": "error"
    },
    {
      "inputs": [
        {
          "internalType": "uint128",
          "name": "cakeId",
          "type": "uint128"
        }
      ],
      "name": "CakeInactive",
      "type": "error"
    },
    {
      "inputs": [
        {
          "internalType": "uint64",
          "name": "memberId",
          "type": "uint64"
        }
      ],
      "name": "DuplicateMember",
      "type": "error"
    },
    {
      "inputs": [
        {
          "internalType": "uint128",
          "name": "cakeId",
          "type": "uint128"
        },
        {
          "internalType": "uint64",
          "name": "ingredientId",
          "type": "uint64"
        }
      ],
      "name": "IngredientDoesNotExist",
      "type": "error"
    },
    {
      "inputs": [],
      "name": "InvalidBillingPeriod",
      "type": "error"
    },
    {
      "inputs": [],
      "name": "InvalidMembers",
      "type": "error"
    },
    {
      "inputs": [],
      "name": "InvalidWeights",
      "type": "error"
    },
    {
      "inputs": [
        {
          "internalType": "uint64",
          "name": "memberId",
          "type": "uint64"
        }
      ],
      "name": "MemberNotRegistered",
      "type": "error"
    },
    {
      "inputs": [
        {
          "internalType": "uint64",
          "name": "memberId",
          "type": "uint64"
        }
      ],
      "name": "NotMember",
      "type": "error"
    },
    {
      "inputs": [
        {
          "internalType": "uint128",
          "name": "cakeId",
          "type": "uint128"
        }
      ],
      "name": "NothingToCut",
      "type": "error"
    },
    {
      "anonymous": false,
      "inputs": [
        {
          "indexed": true,
          "internalType": "uint128",
          "name": "batchedCakeIngredientsId",
          "type": "uint128"
        },
        {
          "indexed": true,
          "internalType": "uint128",
          "name": "cakeId",
          "type": "uint128"
        }
      ],
      "name": "BatchedCakeIngredientsAdded",
      "type": "event"
    },
    {
      "anonymous": false,
      "inputs": [
        {
          "indexed": true,
          "internalType": "uint128",
          "name": "cakeId",
          "type": "uint128"
        }
      ],
      "name": "CakeCreated",
      "type": "event"
    },
    {
      "anonymous": false,
      "inputs": [
        {
          "indexed": true,
          "internalType": "uint128",
          "name": "cakeId",
          "type": "uint128"
        }
      ],
      "name": "CakeCutted",
      "type": "event"
    },
    {
      "inputs": [
        {
          "internalType": "uint128",
          "name": "cakeId",
          "type": "uint128"
        },
        {
          "internalType": "uint16[]",
          "name": "weights",
          "type": "uint16[]"
        },
        {
          "internalType": "uint64[]",
          "name": "payerIds",
          "type": "uint64[]"
        },
        {
          "internalType": "uint256[]",
          "name": "payedAmounts",
          "type": "uint256[]"
        }
      ],
      "name": "addBatchedCakeIngredients",
      "outputs": [
        {
          "internalType": "uint128",
          "name": "",
          "type": "uint128"
        }
      ],
      "stateMutability": "nonpayable",
      "type": "function"
    },
    {
      "inputs": [
        {
          "internalType": "uint128",
          "name": "",
          "type": "uint128"
        },
        {
          "internalType": "uint64",
          "name": "",
          "type": "uint64"
        }
      ],
      "name": "batchedIngredientsPerCake",
      "outputs": [
        {
          "internalType": "uint64",
          "name": "createdAt",
          "type": "uint64"
        }
      ],
      "stateMutability": "view",
      "type": "function"
    },
    {
      "inputs": [
        {
          "internalType": "uint128",
          "name": "",
          "type": "uint128"
        },
        {
          "internalType": "uint64",
          "name": "",
          "type": "uint64"
        }
      ],
      "name": "cakeMemberIndex",
      "outputs": [
        {
          "internalType": "uint64",
          "name": "",
          "type": "uint64"
        }
      ],
      "stateMutability": "view",
      "type": "function"
    },
    {
      "inputs": [
        {
          "internalType": "uint128",
          "name": "",
          "type": "uint128"
        }
      ],
      "name": "cakes",
      "outputs": [
        {
          "internalType": "uint64",
          "name": "createdAt",
          "type": "uint64"
        },
        {
          "internalType": "uint64",
          "name": "lastCutAt",
          "type": "uint64"
        },
        {
          "internalType": "uint64",
          "name": "lastCutBatchedIngredientsId",
          "type": "uint64"
        },
        {
          "internalType": "uint128",
          "name": "latestIngredientId",
          "type": "uint128"
        },
        {
          "internalType": "uint64",
          "name": "billingPeriod",
          "type": "uint64"
        },
        {
          "internalType": "uint64",
          "name": "nextDueAt",
          "type": "uint64"
        },
        {
          "internalType": "uint16",
          "name": "interestRate",
          "type": "uint16"
        },
        {
          "internalType": "bool",
          "name": "active",
          "type": "bool"
        },
        {
          "internalType": "address",
          "name": "token",
          "type": "address"
        }
      ],
      "stateMutability": "view",
      "type": "function"
    },
    {
      "inputs": [
        {
          "internalType": "address",
          "name": "token",
          "type": "address"
        },
        {
          "internalType": "uint64[]",
          "name": "memberIds",
          "type": "uint64[]"
        },
        {
          "internalType": "uint16[]",
          "name": "memberWeightsBps",
          "type": "uint16[]"
        },
        {
          "internalType": "uint16",
          "name": "interestRate",
          "type": "uint16"
        },
        {
          "internalType": "uint64",
          "name": "billingPeriod",
          "type": "uint64"
        }
      ],
      "name": "createCake",
      "outputs": [
        {
          "internalType": "uint128",
          "name": "",
          "type": "uint128"
        }
      ],
      "stateMutability": "nonpayable",
      "type": "function"
    },
    {
      "inputs": [
        {
          "internalType": "uint128",
          "name": "_cakeId",
          "type": "uint128"
        }
      ],
      "name": "cutCake",
      "outputs": [],
      "stateMutability": "payable",
      "type": "function"
    },
    {
      "inputs": [
        {
          "internalType": "uint128",
          "name": "cakeId",
          "type": "uint128"
        }
      ],
      "name": "getCakeDetails",
      "outputs": [
        {
          "internalType": "uint64[]",
          "name": "memberIds",
          "type": "uint64[]"
        },
        {
          "internalType": "int256[]",
          "name": "currentBalances",
          "type": "int256[]"
        },
        {
          "internalType": "uint16",
          "name": "interestRate",
          "type": "uint16"
        },
        {
          "internalType": "bool",
          "name": "active",
          "type": "bool"
        },
        {
          "internalType": "address",
          "name": "token",
          "type": "address"
        }
      ],
      "stateMutability": "view",
      "type": "function"
    },
    {
      "inputs": [
        {
          "internalType": "uint128",
          "name": "cakeId",
          "type": "uint128"
        },
        {
          "internalType": "uint64",
          "name": "ingredientId",
          "type": "uint64"
        }
      ],
      "name": "getCakeIngredientDetails",
      "outputs": [
        {
          "internalType": "uint16[]",
          "name": "weights",
          "type": "uint16[]"
        },
        {
          "internalType": "uint64[]",
          "name": "payerIds",
          "type": "uint64[]"
        },
        {
          "internalType": "uint256[]",
          "name": "payedAmounts",
          "type": "uint256[]"
        },
        {
          "internalType": "uint64",
          "name": "createdAt",
          "type": "uint64"
        }
      ],
      "stateMutability": "view",
      "type": "function"
    },
    {
      "inputs": [
        {
          "internalType": "uint128",
          "name": "cakeId",
          "type": "uint128"
        },
        {
          "internalType": "uint64",
          "name": "memberId",
          "type": "uint64"
        }
      ],
      "name": "getCakeMemberBalance",
      "outputs": [
        {
          "internalType": "int256",
          "name": "",
          "type": "int256"
        }
      ],
      "stateMutability": "view",
      "type": "function"
    },
    {
      "inputs": [
        {
          "internalType": "uint128",
          "name": "cakeId",
          "type": "uint128"
        }
      ],
      "name": "getCakeMemberConfig",
      "outputs": [
        {
          "internalType": "uint64[]",
          "name": "memberIds",
          "type": "uint64[]"
        },
        {
          "internalType": "uint16[]",
          "name": "memberWeights",
          "type": "uint16[]"
        }
      ],
      "stateMutability": "view",
      "type": "function"
    },
    {
      "inputs": [
        {
          "internalType": "uint128",
          "name": "cakeId",
          "type": "uint128"
        }
      ],
      "name": "getCakeMembers",
      "outputs": [
        {
          "internalType": "uint64[]",
          "name": "",
          "type": "uint64[]"
        }
      ],
      "stateMutability": "view",
      "type": "function"
    },
    {
      "inputs": [
        {
          "internalType": "uint64",
          "name": "userId",
          "type": "uint64"
        }
      ],
      "name": "getUserAddress",
      "outputs": [
        {
          "internalType": "address",
          "name": "",
          "type": "address"
        }
      ],
      "stateMutability": "view",
      "type": "function"
    },
    {
      "inputs": [
        {
          "internalType": "uint64",
          "name": "userId",
          "type": "uint64"
        }
      ],
      "name": "getUserCakes",
      "outputs": [
        {
          "internalType": "uint128[]",
          "name": "",
          "type": "uint128[]"
        }
      ],
      "stateMutability": "view",
      "type": "function"
    },
    {
      "inputs": [
        {
          "internalType": "address",
          "name": "userAddress",
          "type": "address"
        }
      ],
      "name": "getUserId",
      "outputs": [
        {
          "internalType": "uint64",
          "name": "",
          "type": "uint64"
        }
      ],
      "stateMutability": "view",
      "type": "function"
    },
    {
      "inputs": [
        {
          "internalType": "uint128",
          "name": "cakeId",
          "type": "uint128"
        },
        {
          "internalType": "uint64",
          "name": "memberId",
          "type": "uint64"
        }
      ],
      "name": "isMember",
      "outputs": [
        {
          "internalType": "bool",
          "name": "",
          "type": "bool"
        }
      ],
      "stateMutability": "view",
      "type": "function"
    },
    {
      "inputs": [
        {
          "internalType": "address",
          "name": "userAddress",
          "type": "address"
        }
      ],
      "name": "registerUser",
      "outputs": [
        {
          "internalType": "uint64",
          "name": "",
          "type": "uint64"
        }
      ],
      "stateMutability": "nonpayable",
      "type": "function"
    },
    {
      "inputs": [],
      "name": "totalBatchedCakeIngredients",
      "outputs": [
        {
          "internalType": "uint128",
          "name": "",
          "type": "uint128"
        }
      ],
      "stateMutability": "view",
      "type": "function"
    },
    {
      "inputs": [],
      "name": "totalCakes",
      "outputs": [
        {
          "internalType": "uint128",
          "name": "",
          "type": "uint128"
        }
      ],
      "stateMutability": "view",
      "type": "function"
    },
    {
      "inputs": [],
      "name": "totalUsers",
      "outputs": [
        {
          "internalType": "uint64",
          "name": "",
          "type": "uint64"
        }
      ],
      "stateMutability": "view",
      "type": "function"
    },
    {
      "inputs": [
        {
          "internalType": "uint64",
          "name": "",
          "type": "uint64"
        }
      ],
      "name": "userAddresses",
      "outputs": [
        {
          "internalType": "address",
          "name": "",
          "type": "address"
        }
      ],
      "stateMutability": "view",
      "type": "function"
    },
    {
      "inputs": [
        {
          "internalType": "uint64",
          "name": "",
          "type": "uint64"
        },
        {
          "internalType": "uint128",
          "name": "",
          "type": "uint128"
        }
      ],
      "name": "userCakes",
      "outputs": [
        {
          "internalType": "bool",
          "name": "",
          "type": "bool"
        }
      ],
      "stateMutability": "view",
      "type": "function"
    },
    {
      "inputs": [
        {
          "internalType": "address",
          "name": "",
          "type": "address"
        }
      ],
      "name": "userIds",
      "outputs": [
        {
          "internalType": "uint64",
          "name": "",
          "type": "uint64"
        }
      ],
      "stateMutability": "view",
      "type": "function"
    }
  ],
  "bytecode": "0x608060405234801561001057600080fd5b5060078054600880546001600160801b03191690556001600160c01b0319169055612a5d806100406000396000f3fe6080604052600436106101355760003560e01c80638bfe97c5116100ab578063adc009ee1161006f578063adc009ee146104a8578063b0645d7f146104e9578063b7789c74146105f4578063bd4d83ab14610614578063bff1f9e11461064a578063f99e4ba11461066a57600080fd5b80638bfe97c5146103735780639243fc69146103ab5780639542bb02146103ec57806397714b48146104375780639d05aa6f1461048857600080fd5b80634081db51116100fd5780634081db5114610248578063616547f11461027e5780636da4606d146102ac57806371c113151461030357806375f595281461031857806376cc44d71461034657600080fd5b80630ed1e14d1461013a578063102275cc146101705780631b837ded146101a15780632199d5cd146101d15780632b956ff714610209575b600080fd5b34801561014657600080fd5b5061015a6101553660046122d6565b610691565b604051610167919061233d565b60405180910390f35b34801561017c57600080fd5b5061019061018b3660046122d6565b610775565b604051610167959493929190612350565b3480156101ad57600080fd5b506101c16101bc3660046123df565b6108e5565b6040516101679493929190612447565b3480156101dd57600080fd5b506101f16101ec3660046124dc565b610b22565b6040516001600160401b039091168152602001610167565b34801561021557600080fd5b506101f16102243660046124dc565b6001600160a01b03166000908152602081905260409020546001600160401b031690565b34801561025457600080fd5b506101f16102633660046124dc565b6000602081905290815260409020546001600160401b031681565b34801561028a57600080fd5b5061029e6102993660046123df565b610c0a565b604051908152602001610167565b3480156102b857600080fd5b506102eb6102c73660046124f7565b6001600160401b03166000908152600160205260409020546001600160a01b031690565b6040516001600160a01b039091168152602001610167565b6103166103113660046122d6565b610cef565b005b34801561032457600080fd5b506103386103333660046122d6565b611017565b604051610167929190612512565b34801561035257600080fd5b506103666103613660046124f7565b6111a2565b6040516101679190612540565b34801561037f57600080fd5b5061039361038e3660046126e4565b61128b565b6040516001600160801b039091168152602001610167565b3480156103b757600080fd5b506101f16103c63660046123df565b60036020908152600092835260408084209091529082529020546001600160401b031681565b3480156103f857600080fd5b50610427610407366004612779565b600460209081526000928352604080842090915290825290205460ff1681565b6040519015158152602001610167565b34801561044357600080fd5b506104276104523660046123df565b6001600160801b039190911660009081526006602090815260408083206001600160401b03948516845290915290205416151590565b34801561049457600080fd5b506103936104a33660046127a3565b61186c565b3480156104b457600080fd5b506101f16104c33660046123df565b60066020908152600092835260408084209091529082529020546001600160401b031681565b3480156104f557600080fd5b506105836105043660046122d6565b60026020819052600091825260409091208054600182015491909201546001600160401b0380841693600160401b8104821693600160801b918290048316936001600160801b03821693928204831692600160c01b9092049091169061ffff81169062010000810460ff1690630100000090046001600160a01b031689565b604080516001600160401b039a8b168152988a1660208a0152968916968801969096526001600160801b03909416606087015291861660808601529490941660a084015261ffff90931660c083015291151560e08201526001600160a01b0390911661010082015261012001610167565b34801561060057600080fd5b50600854610393906001600160801b031681565b34801561062057600080fd5b506102eb61062f3660046124f7565b6001602052600090815260409020546001600160a01b031681565b34801561065657600080fd5b506007546101f1906001600160401b031681565b34801561067657600080fd5b5060075461039390600160401b90046001600160801b031681565b6001600160801b038116600090815260026020526040812080546060926001600160401b0390911690036106e85760405163598756b160e11b81526001600160801b03841660048201526024015b60405180910390fd5b8060040180548060200260200160405190810160405280929190818152602001828054801561076857602002820191906000526020600020906000905b82829054906101000a90046001600160401b03166001600160401b0316815260200190600801906020826007010492830192600103820291508084116107255790505b5050505050915050919050565b6001600160801b0381166000908152600260205260408120805460609283929091829182916001600160401b031682036107cd5760405163598756b160e11b81526001600160801b03881660048201526024016106df565b6002810154600482018054604080516020808402820181019092528281529293600686019361ffff82169362010000830460ff169363010000009093046001600160a01b03169287919083018282801561087857602002820191906000526020600020906000905b82829054906101000a90046001600160401b03166001600160401b0316815260200190600801906020826007010492830192600103820291508084116108355790505b50505050509450838054806020026020016040519081016040528092919081815260200182805480156108ca57602002820191906000526020600020905b8154815260200190600101908083116108b6575b50505050509350955095509550955095505091939590929450565b6001600160801b03821660009081526002602052604081208054606092839283926001600160401b031682036109395760405163598756b160e11b81526001600160801b03881660048201526024016106df565b6001600160801b03871660009081526003602090815260408083206001600160401b03808b1685529252822080549092911690036109a4576040516317e7214f60e31b81526001600160801b03891660048201526001600160401b03881660248201526044016106df565b8054600182018054604080516020808402820181019092528281529293600286019360038701936001600160401b039092169290918691830182828015610a3257602002820191906000526020600020906000905b82829054906101000a900461ffff1661ffff16815260200190600201906020826001010492830192600103820291508084116109f95790505b5050505050935082805480602002602001604051908101604052809291908181526020018280548015610ab657602002820191906000526020600020906000905b82829054906101000a90046001600160401b03166001600160401b031681526020019060080190602082600701049283019260010382029150808411610a735790505b5050505050925081805480602002602001604051908101604052809291908181526020018280548015610b0857602002820191906000526020600020905b815481526020019060010190808311610af4575b505050505091509550955095509550505092959194509250565b6001600160a01b0381166000908152602081905260408120546001600160401b031615610b6e57506001600160a01b03166000908152602081905260409020546001600160401b031690565b600780546001600160401b0316906000610b87836128a5565b82546001600160401b039182166101009390930a928302928202191691909117909155600780546001600160a01b03909516600081815260208181526040808320805467ffffffffffffffff191699871699909917909855835485168252600190529590952080546001600160a01b031916909517909455925490921692915050565b6001600160801b038216600090815260026020526040812080546001600160401b03168203610c575760405163598756b160e11b81526001600160801b03851660048201526024016106df565b6001600160801b03841660009081526006602090815260408083206001600160401b03808816855292528220541690819003610cb15760405163d35edc1f60e01b81526001600160401b03851660048201526024016106df565b60068201610cc06001836128cb565b6001600160401b031681548110610cd957610cd96128f2565b9060005260206000200154925050505b92915050565b6001600160801b0381166000908152600260205260408120805490916001600160401b039091169003610d405760405163598756b160e11b81526001600160801b03831660048201526024016106df565b600281015462010000900460ff16610d7657604051636ca1ff8760e01b81526001600160801b03831660048201526024016106df565b336000908152602081905260409020546001600160401b0316801580610dc857506001600160801b03831660009081526006602090815260408083206001600160401b03808616855292529091205416155b15610df15760405163d35edc1f60e01b81526001600160401b03821660048201526024016106df565b81546001830154600160801b9091046001600160401b0316906001600160801b0316801580610e325750816001600160401b0316816001600160801b031611155b15610e5b5760405163245afb6f60e11b81526001600160801b03861660048201526024016106df565b6001600160401b036001600160801b0382161115610e8c57604051630625040160e01b815260040160405180910390fd5b80610e9685611c64565b6000610ea3846001612908565b90505b816001600160401b0316816001600160401b031611610f48576001600160801b03871660009081526003602090815260408083206001600160401b038086168552925282208054909291169003610f2a576040516317e7214f60e31b81526001600160801b03891660048201526001600160401b03831660248201526044016106df565b610f35888883611df4565b5080610f40816128a5565b915050610ea6565b5084546001600160401b03828116600160801b90810267ffffffffffffffff60801b1942848116600160401b029190911677ffffffffffffffffffffffffffffffff000000000000000019909516949094171788556001880154610fb29391900490911690612928565b6001860180546001600160401b0392909216600160c01b026001600160c01b039092169190911790556040516001600160801b038716907f8777a1f1bec59d7313d557b50cf6e83ca0e7ee87ee55edd94034ef35ac010d7590600090a2505050505050565b6001600160801b038116600090815260026020526040812080546060928392916001600160401b0316900361106a5760405163598756b160e11b81526001600160801b03851660048201526024016106df565b600581015460048201541461109257604051630592b4c160e21b815260040160405180910390fd5b80600401816005018180548060200260200160405190810160405280929190818152602001828054801561111757602002820191906000526020600020906000905b82829054906101000a90046001600160401b03166001600160401b0316815260200190600801906020826007010492830192600103820291508084116110d45790505b505050505091508080548060200260200160405190810160405280929190818152602001828054801561119157602002820191906000526020600020906000905b82829054906101000a900461ffff1661ffff16815260200190600201906020826001010492830192600103820291508084116111585790505b505050505090509250925050915091565b6001600160401b0381166000908152600160205260409020546060906001600160a01b03166111ef57604051632561b23b60e21b81526001600160401b03831660048201526024016106df565b6001600160401b0382166000908152600560209081526040918290208054835181840281018401909452808452909183018282801561127f57602002820191906000526020600020906000905b82829054906101000a90046001600160801b03166001600160801b031681526020019060100190602082600f0104928301926001038202915080841161123c5790505b50505050509050919050565b600060028551108061129f57508351855114155b156112bd57604051630592b4c160e21b815260040160405180910390fd5b816001600160401b03166000036112e757604051633f1f6d2d60e01b815260040160405180910390fd5b6000805b855181101561132757858181518110611306576113066128f2565b602002602001015161ffff168261131d9190612928565b91506001016112eb565b50612710811461134a5760405163108cef9d60e31b815260040160405180910390fd5b60078054600160401b90046001600160801b031690600861136a8361293b565b82546101009290920a6001600160801b03818102199093169183160217909155600754600160401b90819004909116600081815260026020526040902080546fffffffffffffffffffffffffffffffff1916426001600160401b03818116928317929095029190911767ffffffffffffffff60801b191682556001820180546001600160c01b031916600160801b958a169586021790559193509161140e91612928565b6001820180546001600160c01b0316600160c01b6001600160401b03938416021790556002820180546201000061ffff8a1662ffffff1990921691909117176301000000600160b81b03191663010000006001600160a01b038d160217905588519081111561147f5761147f61258d565b6040519080825280602002602001820160405280156114a8578160200160208202803683370190505b5080516114bf91600484019160209091019061208c565b5087516001600160401b038111156114d9576114d961258d565b604051908082528060200260200182016040528015611502578160200160208202803683370190505b508051611519916005840191602090910190612140565b5087516001600160401b038111156115335761153361258d565b60405190808252806020026020018201604052801561155c578160200160208202803683370190505b5080516115739160068401916020909101906121d7565b5087516001600160401b0381111561158d5761158d61258d565b6040519080825280602002602001820160405280156115b6578160200160208202803683370190505b5080516115cd916003840191602090910190612212565b5060005b885181101561182b5760008982815181106115ee576115ee6128f2565b60200260200101519050806001600160401b03166000148061162f57506001600160401b0381166000908152600160205260409020546001600160a01b0316155b1561165857604051632561b23b60e21b81526001600160401b03821660048201526024016106df565b6001600160801b03841660009081526006602090815260408083206001600160401b03808616855292529091205416156116b05760405163b65766e160e01b81526001600160401b03821660048201526024016106df565b808360040183815481106116c6576116c66128f2565b90600052602060002090600491828204019190066008026101000a8154816001600160401b0302191690836001600160401b03160217905550888281518110611711576117116128f2565b602002602001015183600501838154811061172e5761172e6128f2565b90600052602060002090601091828204019190066002026101000a81548161ffff021916908361ffff1602179055506000836006018381548110611774576117746128f2565b60009182526020909120015561178b826001612928565b6001600160801b0385811660008181526006602090815260408083206001600160401b03978816808552908352818420805467ffffffffffffffff19169790981696909617909655600481528582208383528152858220805460ff191660019081179091559482526005815294812080548086018255908252949020600285040180549484166010026101000a92830219909416910217909155016115d1565b506040516001600160801b038316907f1fbdf49e7b4580db90f7157790537f52f1bc9ed3ad16759426c64096aedca14790600090a250979650505050505050565b6001600160801b038416600090815260026020526040812080546001600160401b031682036118b95760405163598756b160e11b81526001600160801b03871660048201526024016106df565b600281015462010000900460ff166118ef57604051636ca1ff8760e01b81526001600160801b03871660048201526024016106df565b835115806118ff57508251845114155b1561191d57604051630592b4c160e21b815260040160405180910390fd5b606085516000036119e9576005820154806001600160401b038111156119455761194561258d565b60405190808252806020026020018201604052801561196e578160200160208202803683370190505b50915060005b818110156119e257836005018181548110611991576119916128f2565b90600052602060002090601091828204019190066002029054906101000a900461ffff168382815181106119c7576119c76128f2565b61ffff90921660209283029190910190910152600101611974565b5050611a76565b6004820154865114611a0e5760405163108cef9d60e31b815260040160405180910390fd5b6000805b8751811015611a4e57878181518110611a2d57611a2d6128f2565b602002602001015161ffff1682611a449190612928565b9150600101611a12565b506127108114611a715760405163108cef9d60e31b815260040160405180910390fd5b869150505b60005b8551811015611b16576000868281518110611a9657611a966128f2565b60200260200101519050806001600160401b031660001480611ae457506001600160801b03891660009081526006602090815260408083206001600160401b03808616855292529091205416155b15611b0d5760405163d35edc1f60e01b81526001600160401b03821660048201526024016106df565b50600101611a79565b5060018281018054600090611b359084906001600160801b0316612957565b82546101009290920a6001600160801b0381810219909316918316021790915560018401546008805491831693509116906000611b718361293b565b82546101009290920a6001600160801b03818102199093169183160217909155891660009081526003602090815260408083206001600160401b0386811685529083529220805467ffffffffffffffff1916429093169290921782558451919250611be3916001840191860190612140565b508651611bf990600283019060208a019061208c565b508551611c0f90600383019060208901906121d7565b506040516001600160801b038a16906001600160401b038416907f5c1e2b802d1ef94d2ae4b924e8b531546db2cfe59c3986257eb800dc8b8c5cc690600090a3506001600160401b0316979650505050505050565b600281015461ffff161580611c8b57506001810154600160801b90046001600160401b0316155b15611c935750565b6001810154600160c01b90046001600160401b03164211611cb15750565b6001810154600090611cd390600160c01b90046001600160401b031642612977565b6001830154909150600090611cf890600160801b90046001600160401b0316836129a0565b6001840154909150611d1a90600160801b90046001600160401b0316836129b4565b15611d2d57611d2a600182612928565b90505b80600003611d39575060015b60005b6006840154811015611dee576000846006018281548110611d5f57611d5f6128f2565b9060005260206000200154905060008113611d7a5750611de6565b60028501548190600090612710908690611d989061ffff16856129c8565b611da291906129c8565b611dac91906129a0565b9050611db78161205e565b611dc190846129df565b876006018581548110611dd657611dd66128f2565b6000918252602090912001555050505b600101611d3c565b50505050565b600482015460018201548114611e1d5760405163108cef9d60e31b815260040160405180910390fd5b6002820154801580611e33575060038301548114155b15611e5157604051630592b4c160e21b815260040160405180910390fd5b6000805b82811015611e9257846003018181548110611e7257611e726128f2565b906000526020600020015482611e889190612928565b9150600101611e55565b5060005b83811015611f3757600061271061ffff16866001018381548110611ebc57611ebc6128f2565b60009182526020909120601082040154611ee691600f166002026101000a900461ffff16856129c8565b611ef091906129a0565b9050611efb8161205e565b876006018381548110611f1057611f106128f2565b906000526020600020016000828254611f2991906129df565b909155505050600101611e96565b5060005b82811015612055576000856002018281548110611f5a57611f5a6128f2565b600091825260208083206004830401546001600160801b038c16845260068252604080852060039094166008026101000a9091046001600160401b03908116808652939092528320549193501690819003611fd35760405163d35edc1f60e01b81526001600160401b03831660048201526024016106df565b6000611fe06001836128cb565b6001600160401b03169050612013886003018581548110612003576120036128f2565b906000526020600020015461205e565b896006018281548110612028576120286128f2565b9060005260206000200160008282546120419190612a07565b909155505060019093019250611f3b915050565b50505050505050565b60006001600160ff1b0382111561208857604051630625040160e01b815260040160405180910390fd5b5090565b828054828255906000526020600020906003016004900481019282156121345791602002820160005b838211156120ff57835183826101000a8154816001600160401b0302191690836001600160401b0316021790555092602001926008016020816007010492830192600103026120b5565b80156121325782816101000a8154906001600160401b0302191690556008016020816007010492830192600103026120ff565b505b506120889291506122a5565b82805482825590600052602060002090600f016010900481019282156121345791602002820160005b838211156121a957835183826101000a81548161ffff021916908361ffff1602179055509260200192600201602081600101049283019260010302612169565b80156121325782816101000a81549061ffff02191690556002016020816001010492830192600103026121a9565b828054828255906000526020600020908101928215612134579160200282015b828111156121345782518255916020019190600101906121f7565b82805482825590600052602060002090601f016020900481019282156121345791602002820160005b8382111561227857835183826101000a81548160ff021916908315150217905550926020019260010160208160000104928301926001030261223b565b80156121325782816101000a81549060ff0219169055600101602081600001049283019260010302612278565b5b8082111561208857600081556001016122a6565b80356001600160801b03811681146122d157600080fd5b919050565b6000602082840312156122e857600080fd5b6122f1826122ba565b9392505050565b60008151808452602080850194506020840160005b838110156123325781516001600160401b03168752958201959082019060010161230d565b509495945050505050565b6020815260006122f160208301846122f8565b60a08152600061236360a08301886122f8565b82810360208481019190915287518083528882019282019060005b8181101561239a5784518352938301939183019160010161237e565b505061ffff97909716604085015250505091151560608301526001600160a01b031660809091015292915050565b80356001600160401b03811681146122d157600080fd5b600080604083850312156123f257600080fd5b6123fb836122ba565b9150612409602084016123c8565b90509250929050565b60008151808452602080850194506020840160005b8381101561233257815161ffff1687529582019590820190600101612427565b60808152600061245a6080830187612412565b6020838203602085015261246e82886122f8565b84810360408601528651808252602080890194509091019060005b818110156124a557845183529383019391830191600101612489565b50508093505050506001600160401b038316606083015295945050505050565b80356001600160a01b03811681146122d157600080fd5b6000602082840312156124ee57600080fd5b6122f1826124c5565b60006020828403121561250957600080fd5b6122f1826123c8565b60408152600061252560408301856122f8565b82810360208401526125378185612412565b95945050505050565b6020808252825182820181905260009190848201906040850190845b818110156125815783516001600160801b03168352928401929184019160010161255c565b50909695505050505050565b634e487b7160e01b600052604160045260246000fd5b604051601f8201601f191681016001600160401b03811182821017156125cb576125cb61258d565b604052919050565b60006001600160401b038211156125ec576125ec61258d565b5060051b60200190565b600082601f83011261260757600080fd5b8135602061261c612617836125d3565b6125a3565b8083825260208201915060208460051b87010193508684111561263e57600080fd5b602086015b8481101561266157612654816123c8565b8352918301918301612643565b509695505050505050565b803561ffff811681146122d157600080fd5b600082601f83011261268f57600080fd5b8135602061269f612617836125d3565b8083825260208201915060208460051b8701019350868411156126c157600080fd5b602086015b84811015612661576126d78161266c565b83529183019183016126c6565b600080600080600060a086880312156126fc57600080fd5b612705866124c5565b945060208601356001600160401b038082111561272157600080fd5b61272d89838a016125f6565b9550604088013591508082111561274357600080fd5b506127508882890161267e565b93505061275f6060870161266c565b915061276d608087016123c8565b90509295509295909350565b6000806040838503121561278c57600080fd5b612795836123c8565b9150612409602084016122ba565b600080600080608085870312156127b957600080fd5b6127c2856122ba565b93506020808601356001600160401b03808211156127df57600080fd5b6127eb89838a0161267e565b9550604088013591508082111561280157600080fd5b61280d89838a016125f6565b9450606088013591508082111561282357600080fd5b508601601f8101881361283557600080fd5b8035612843612617826125d3565b81815260059190911b8201830190838101908a83111561286257600080fd5b928401925b8284101561288057833582529284019290840190612867565b979a9699509497505050505050565b634e487b7160e01b600052601160045260246000fd5b60006001600160401b038083168181036128c1576128c161288f565b6001019392505050565b6001600160401b038281168282160390808211156128eb576128eb61288f565b5092915050565b634e487b7160e01b600052603260045260246000fd5b6001600160401b038181168382160190808211156128eb576128eb61288f565b80820180821115610ce957610ce961288f565b60006001600160801b038083168181036128c1576128c161288f565b6001600160801b038181168382160190808211156128eb576128eb61288f565b81810381811115610ce957610ce961288f565b634e487b7160e01b600052601260045260246000fd5b6000826129af576129af61298a565b500490565b6000826129c3576129c361298a565b500690565b8082028115828204841417610ce957610ce961288f565b80820182811260008312801582168215821617156129ff576129ff61288f565b505092915050565b81810360008312801583831316838312821617156128eb576128eb61288f56fea26469706673582212206061d453fea18dc7b9c090a9db1f59b89ef6e357217266e88690a559e1d37a2264736f6c63430008180033",
  "linkReferences": {},
  "deployedLinkReferences": {}
}