{
  "_format": "hh-sol-artifact-1",
  "contractName": "CakeFactory",
  "sourceName": "contracts/CakeFactory.sol",
  "abi": [
    {
      "inputs": [
        {
          "internalType": "address",
          "name": "_router",
          "type": "address"
        },
        {
          "internalType": "address",
          "name": "_poolManager",
          "type": "address"
        },
        {
          "internalType": "address",
          "name": "_permit2",
          "type": "address"
        }
      ],
      "stateMutability": "nonpayable",
      "type": "constructor"
    },
    {
      "inputs": [],
      "name": "AmountTooLarge",
      "type": "error"
    },
    {
      "inputs": [
        {
          "internalType": "uint128",
          "name": "cakeId",
          "type": "uint128"
        }
      ],
      "name": "CakeDoesNotExist",
      "type": "error"
    },
    {
      "inputs": [
        {
          "internalType": "uint128",
          "name": "cakeId",
          "type": "uint128"
        }
      ],
      "name": "CakeInactive",
      "type": "error"
    },
    {
      "inputs": [
        {
          "internalType": "uint64",
          "name": "memberId",
          "type": "uint64"
        }
      ],
      "name": "DuplicateMember",
      "type": "error"
    },
    {
      "inputs": [
        {
          "internalType": "uint128",
          "name": "cakeId",
          "type": "uint128"
        },
        {
          "internalType": "uint64",
          "name": "ingredientId",
          "type": "uint64"
        }
      ],
      "name": "IngredientDoesNotExist",
      "type": "error"
    },
    {
      "inputs": [],
      "name": "InvalidBillingPeriod",
      "type": "error"
    },
    {
      "inputs": [],
      "name": "InvalidMembers",
      "type": "error"
    },
    {
      "inputs": [],
      "name": "InvalidWeights",
      "type": "error"
    },
    {
      "inputs": [
        {
          "internalType": "uint64",
          "name": "memberId",
          "type": "uint64"
        }
      ],
      "name": "MemberNotRegistered",
      "type": "error"
    },
    {
      "inputs": [
        {
          "internalType": "uint64",
          "name": "memberId",
          "type": "uint64"
        }
      ],
      "name": "NotMember",
      "type": "error"
    },
    {
      "inputs": [
        {
          "internalType": "uint128",
          "name": "cakeId",
          "type": "uint128"
        }
      ],
      "name": "NothingToCut",
      "type": "error"
    },
    {
      "inputs": [
        {
          "internalType": "address",
          "name": "owner",
          "type": "address"
        }
      ],
      "name": "OwnableInvalidOwner",
      "type": "error"
    },
    {
      "inputs": [
        {
          "internalType": "address",
          "name": "account",
          "type": "address"
        }
      ],
      "name": "OwnableUnauthorizedAccount",
      "type": "error"
    },
    {
      "inputs": [],
      "name": "ReentrancyGuardReentrantCall",
      "type": "error"
    },
    {
      "inputs": [
        {
          "internalType": "address",
          "name": "token",
          "type": "address"
        }
      ],
      "name": "SafeERC20FailedOperation",
      "type": "error"
    },
    {
      "anonymous": false,
      "inputs": [
        {
          "indexed": true,
          "internalType": "uint128",
          "name": "batchedCakeIngredientsId",
          "type": "uint128"
        },
        {
          "indexed": true,
          "internalType": "uint128",
          "name": "cakeId",
          "type": "uint128"
        }
      ],
      "name": "BatchedCakeIngredientsAdded",
      "type": "event"
    },
    {
      "anonymous": false,
      "inputs": [
        {
          "indexed": true,
          "internalType": "uint128",
          "name": "cakeId",
          "type": "uint128"
        }
      ],
      "name": "CakeCreated",
      "type": "event"
    },
    {
      "anonymous": false,
      "inputs": [
        {
          "indexed": true,
          "internalType": "uint128",
          "name": "cakeId",
          "type": "uint128"
        }
      ],
      "name": "CakeCutted",
      "type": "event"
    },
    {
      "anonymous": false,
      "inputs": [
        {
          "indexed": true,
          "internalType": "uint128",
          "name": "cakeId",
          "type": "uint128"
        }
      ],
      "name": "CakeDisabled",
      "type": "event"
    },
    {
      "anonymous": false,
      "inputs": [
        {
          "indexed": true,
          "internalType": "uint128",
          "name": "cakeId",
          "type": "uint128"
        }
      ],
      "name": "CakeEnabled",
      "type": "event"
    },
    {
      "anonymous": false,
      "inputs": [
        {
          "indexed": true,
          "internalType": "uint128",
          "name": "cakeId",
          "type": "uint128"
        },
        {
          "indexed": true,
          "internalType": "uint64",
          "name": "userId",
          "type": "uint64"
        },
        {
          "indexed": false,
          "internalType": "int256",
          "name": "amount",
          "type": "int256"
        }
      ],
      "name": "CakeSliceClaimed",
      "type": "event"
    },
    {
      "anonymous": false,
      "inputs": [
        {
          "indexed": true,
          "internalType": "uint128",
          "name": "cakeId",
          "type": "uint128"
        },
        {
          "indexed": true,
          "internalType": "uint64",
          "name": "userId",
          "type": "uint64"
        },
        {
          "indexed": false,
          "internalType": "int256",
          "name": "amount",
          "type": "int256"
        }
      ],
      "name": "CakeSlicePaid",
      "type": "event"
    },
    {
      "anonymous": false,
      "inputs": [
        {
          "indexed": true,
          "internalType": "address",
          "name": "previousOwner",
          "type": "address"
        },
        {
          "indexed": true,
          "internalType": "address",
          "name": "newOwner",
          "type": "address"
        }
      ],
      "name": "OwnershipTransferred",
      "type": "event"
    },
    {
      "inputs": [
        {
          "internalType": "uint128",
          "name": "cakeId",
          "type": "uint128"
        },
        {
          "internalType": "uint16[]",
          "name": "weights",
          "type": "uint16[]"
        },
        {
          "internalType": "uint64[]",
          "name": "payerIds",
          "type": "uint64[]"
        },
        {
          "internalType": "uint256[]",
          "name": "payedAmounts",
          "type": "uint256[]"
        }
      ],
      "name": "addBatchedCakeIngredients",
      "outputs": [
        {
          "internalType": "uint128",
          "name": "",
          "type": "uint128"
        }
      ],
      "stateMutability": "nonpayable",
      "type": "function"
    },
    {
      "inputs": [
        {
          "internalType": "uint128",
          "name": "",
          "type": "uint128"
        },
        {
          "internalType": "uint64",
          "name": "",
          "type": "uint64"
        }
      ],
      "name": "batchedIngredientsPerCake",
      "outputs": [
        {
          "internalType": "uint64",
          "name": "createdAt",
          "type": "uint64"
        }
      ],
      "stateMutability": "view",
      "type": "function"
    },
    {
      "inputs": [
        {
          "internalType": "uint128",
          "name": "",
          "type": "uint128"
        },
        {
          "internalType": "uint64",
          "name": "",
          "type": "uint64"
        }
      ],
      "name": "cakeMemberIndex",
      "outputs": [
        {
          "internalType": "uint64",
          "name": "",
          "type": "uint64"
        }
      ],
      "stateMutability": "view",
      "type": "function"
    },
    {
      "inputs": [
        {
          "internalType": "uint128",
          "name": "",
          "type": "uint128"
        }
      ],
      "name": "cakes",
      "outputs": [
        {
          "internalType": "uint64",
          "name": "createdAt",
          "type": "uint64"
        },
        {
          "internalType": "uint64",
          "name": "lastCutAt",
          "type": "uint64"
        },
        {
          "internalType": "uint64",
          "name": "lastCutBatchedIngredientsId",
          "type": "uint64"
        },
        {
          "internalType": "uint128",
          "name": "latestIngredientId",
          "type": "uint128"
        },
        {
          "internalType": "uint64",
          "name": "billingPeriod",
          "type": "uint64"
        },
        {
          "internalType": "uint64",
          "name": "nextDueAt",
          "type": "uint64"
        },
        {
          "internalType": "uint16",
          "name": "interestRate",
          "type": "uint16"
        },
        {
          "internalType": "bool",
          "name": "active",
          "type": "bool"
        },
        {
          "internalType": "address",
          "name": "token",
          "type": "address"
        }
      ],
      "stateMutability": "view",
      "type": "function"
    },
    {
      "inputs": [
        {
          "internalType": "uint128",
          "name": "cakeId",
          "type": "uint128"
        },
        {
          "internalType": "contract IERC20",
          "name": "token",
          "type": "address"
        }
      ],
      "name": "claimCakeSlice",
      "outputs": [],
      "stateMutability": "nonpayable",
      "type": "function"
    },
    {
      "inputs": [
        {
          "internalType": "address",
          "name": "token",
          "type": "address"
        },
        {
          "internalType": "uint64[]",
          "name": "memberIds",
          "type": "uint64[]"
        },
        {
          "internalType": "uint16[]",
          "name": "memberWeightsBps",
          "type": "uint16[]"
        },
        {
          "internalType": "uint16",
          "name": "interestRate",
          "type": "uint16"
        },
        {
          "internalType": "uint64",
          "name": "billingPeriod",
          "type": "uint64"
        }
      ],
      "name": "createCake",
      "outputs": [
        {
          "internalType": "uint128",
          "name": "",
          "type": "uint128"
        }
      ],
      "stateMutability": "nonpayable",
      "type": "function"
    },
    {
      "inputs": [
        {
          "internalType": "uint128",
          "name": "_cakeId",
          "type": "uint128"
        }
      ],
      "name": "cutCake",
      "outputs": [],
      "stateMutability": "payable",
      "type": "function"
    },
    {
      "inputs": [
        {
          "internalType": "uint128",
          "name": "cakeId",
          "type": "uint128"
        }
      ],
      "name": "getCakeDetails",
      "outputs": [
        {
          "internalType": "uint64[]",
          "name": "memberIds",
          "type": "uint64[]"
        },
        {
          "internalType": "int256[]",
          "name": "currentBalances",
          "type": "int256[]"
        },
        {
          "internalType": "uint16",
          "name": "interestRate",
          "type": "uint16"
        },
        {
          "internalType": "bool",
          "name": "active",
          "type": "bool"
        },
        {
          "internalType": "address",
          "name": "token",
          "type": "address"
        }
      ],
      "stateMutability": "view",
      "type": "function"
    },
    {
      "inputs": [
        {
          "internalType": "uint128",
          "name": "cakeId",
          "type": "uint128"
        },
        {
          "internalType": "uint64",
          "name": "ingredientId",
          "type": "uint64"
        }
      ],
      "name": "getCakeIngredientDetails",
      "outputs": [
        {
          "internalType": "uint16[]",
          "name": "weights",
          "type": "uint16[]"
        },
        {
          "internalType": "uint64[]",
          "name": "payerIds",
          "type": "uint64[]"
        },
        {
          "internalType": "uint256[]",
          "name": "payedAmounts",
          "type": "uint256[]"
        },
        {
          "internalType": "uint64",
          "name": "createdAt",
          "type": "uint64"
        }
      ],
      "stateMutability": "view",
      "type": "function"
    },
    {
      "inputs": [
        {
          "internalType": "uint128",
          "name": "cakeId",
          "type": "uint128"
        },
        {
          "internalType": "uint64",
          "name": "memberId",
          "type": "uint64"
        }
      ],
      "name": "getCakeMemberBalance",
      "outputs": [
        {
          "internalType": "int256",
          "name": "",
          "type": "int256"
        }
      ],
      "stateMutability": "view",
      "type": "function"
    },
    {
      "inputs": [
        {
          "internalType": "uint128",
          "name": "cakeId",
          "type": "uint128"
        }
      ],
      "name": "getCakeMemberConfig",
      "outputs": [
        {
          "internalType": "uint64[]",
          "name": "memberIds",
          "type": "uint64[]"
        },
        {
          "internalType": "uint16[]",
          "name": "memberWeights",
          "type": "uint16[]"
        }
      ],
      "stateMutability": "view",
      "type": "function"
    },
    {
      "inputs": [
        {
          "internalType": "uint128",
          "name": "cakeId",
          "type": "uint128"
        }
      ],
      "name": "getCakeMembers",
      "outputs": [
        {
          "internalType": "uint64[]",
          "name": "",
          "type": "uint64[]"
        }
      ],
      "stateMutability": "view",
      "type": "function"
    },
    {
      "inputs": [
        {
          "internalType": "address",
          "name": "token0",
          "type": "address"
        },
        {
          "internalType": "address",
          "name": "token1",
          "type": "address"
        }
      ],
      "name": "getPoolKey",
      "outputs": [
        {
          "components": [
            {
              "internalType": "Currency",
              "name": "currency0",
              "type": "address"
            },
            {
              "internalType": "Currency",
              "name": "currency1",
              "type": "address"
            },
            {
              "internalType": "uint24",
              "name": "fee",
              "type": "uint24"
            },
            {
              "internalType": "int24",
              "name": "tickSpacing",
              "type": "int24"
            },
            {
              "internalType": "contract IHooks",
              "name": "hooks",
              "type": "address"
            }
          ],
          "internalType": "struct PoolKey",
          "name": "",
          "type": "tuple"
        }
      ],
      "stateMutability": "view",
      "type": "function"
    },
    {
      "inputs": [
        {
          "internalType": "uint64",
          "name": "userId",
          "type": "uint64"
        }
      ],
      "name": "getUserAddress",
      "outputs": [
        {
          "internalType": "address",
          "name": "",
          "type": "address"
        }
      ],
      "stateMutability": "view",
      "type": "function"
    },
    {
      "inputs": [
        {
          "internalType": "uint64",
          "name": "userId",
          "type": "uint64"
        }
      ],
      "name": "getUserCakes",
      "outputs": [
        {
          "internalType": "uint128[]",
          "name": "",
          "type": "uint128[]"
        }
      ],
      "stateMutability": "view",
      "type": "function"
    },
    {
      "inputs": [
        {
          "internalType": "address",
          "name": "userAddress",
          "type": "address"
        }
      ],
      "name": "getUserId",
      "outputs": [
        {
          "internalType": "uint64",
          "name": "",
          "type": "uint64"
        }
      ],
      "stateMutability": "view",
      "type": "function"
    },
    {
      "inputs": [
        {
          "internalType": "uint128",
          "name": "cakeId",
          "type": "uint128"
        },
        {
          "internalType": "uint64",
          "name": "memberId",
          "type": "uint64"
        }
      ],
      "name": "isMember",
      "outputs": [
        {
          "internalType": "bool",
          "name": "",
          "type": "bool"
        }
      ],
      "stateMutability": "view",
      "type": "function"
    },
    {
      "inputs": [],
      "name": "owner",
      "outputs": [
        {
          "internalType": "address",
          "name": "",
          "type": "address"
        }
      ],
      "stateMutability": "view",
      "type": "function"
    },
    {
      "inputs": [
        {
          "internalType": "uint128",
          "name": "cakeId",
          "type": "uint128"
        },
        {
          "internalType": "contract IERC20",
          "name": "token",
          "type": "address"
        }
      ],
      "name": "payCakeSlice",
      "outputs": [],
      "stateMutability": "payable",
      "type": "function"
    },
    {
      "inputs": [],
      "name": "permit2",
      "outputs": [
        {
          "internalType": "contract IPermit2",
          "name": "",
          "type": "address"
        }
      ],
      "stateMutability": "view",
      "type": "function"
    },
    {
      "inputs": [],
      "name": "poolManager",
      "outputs": [
        {
          "internalType": "contract IPoolManager",
          "name": "",
          "type": "address"
        }
      ],
      "stateMutability": "view",
      "type": "function"
    },
    {
      "inputs": [
        {
          "internalType": "address",
          "name": "userAddress",
          "type": "address"
        }
      ],
      "name": "registerUser",
      "outputs": [
        {
          "internalType": "uint64",
          "name": "",
          "type": "uint64"
        }
      ],
      "stateMutability": "nonpayable",
      "type": "function"
    },
    {
      "inputs": [],
      "name": "renounceOwnership",
      "outputs": [],
      "stateMutability": "nonpayable",
      "type": "function"
    },
    {
      "inputs": [],
      "name": "router",
      "outputs": [
        {
          "internalType": "contract UniversalRouter",
          "name": "",
          "type": "address"
        }
      ],
      "stateMutability": "view",
      "type": "function"
    },
    {
      "inputs": [
        {
          "internalType": "address",
          "name": "token0",
          "type": "address"
        },
        {
          "internalType": "address",
          "name": "token1",
          "type": "address"
        },
        {
          "components": [
            {
              "internalType": "Currency",
              "name": "currency0",
              "type": "address"
            },
            {
              "internalType": "Currency",
              "name": "currency1",
              "type": "address"
            },
            {
              "internalType": "uint24",
              "name": "fee",
              "type": "uint24"
            },
            {
              "internalType": "int24",
              "name": "tickSpacing",
              "type": "int24"
            },
            {
              "internalType": "contract IHooks",
              "name": "hooks",
              "type": "address"
            }
          ],
          "internalType": "struct PoolKey",
          "name": "poolKey",
          "type": "tuple"
        }
      ],
      "name": "storePoolKey",
      "outputs": [],
      "stateMutability": "nonpayable",
      "type": "function"
    },
    {
      "inputs": [
        {
          "internalType": "address",
          "name": "",
          "type": "address"
        },
        {
          "internalType": "address",
          "name": "",
          "type": "address"
        }
      ],
      "name": "tokenPairPoolKeys",
      "outputs": [
        {
          "internalType": "Currency",
          "name": "currency0",
          "type": "address"
        },
        {
          "internalType": "Currency",
          "name": "currency1",
          "type": "address"
        },
        {
          "internalType": "uint24",
          "name": "fee",
          "type": "uint24"
        },
        {
          "internalType": "int24",
          "name": "tickSpacing",
          "type": "int24"
        },
        {
          "internalType": "contract IHooks",
          "name": "hooks",
          "type": "address"
        }
      ],
      "stateMutability": "view",
      "type": "function"
    },
    {
      "inputs": [],
      "name": "totalBatchedCakeIngredients",
      "outputs": [
        {
          "internalType": "uint128",
          "name": "",
          "type": "uint128"
        }
      ],
      "stateMutability": "view",
      "type": "function"
    },
    {
      "inputs": [],
      "name": "totalCakes",
      "outputs": [
        {
          "internalType": "uint128",
          "name": "",
          "type": "uint128"
        }
      ],
      "stateMutability": "view",
      "type": "function"
    },
    {
      "inputs": [],
      "name": "totalUsers",
      "outputs": [
        {
          "internalType": "uint64",
          "name": "",
          "type": "uint64"
        }
      ],
      "stateMutability": "view",
      "type": "function"
    },
    {
      "inputs": [
        {
          "internalType": "address",
          "name": "newOwner",
          "type": "address"
        }
      ],
      "name": "transferOwnership",
      "outputs": [],
      "stateMutability": "nonpayable",
      "type": "function"
    },
    {
      "inputs": [
        {
          "internalType": "uint64",
          "name": "",
          "type": "uint64"
        }
      ],
      "name": "userAddresses",
      "outputs": [
        {
          "internalType": "address",
          "name": "",
          "type": "address"
        }
      ],
      "stateMutability": "view",
      "type": "function"
    },
    {
      "inputs": [
        {
          "internalType": "uint64",
          "name": "",
          "type": "uint64"
        },
        {
          "internalType": "uint128",
          "name": "",
          "type": "uint128"
        }
      ],
      "name": "userCakes",
      "outputs": [
        {
          "internalType": "bool",
          "name": "",
          "type": "bool"
        }
      ],
      "stateMutability": "view",
      "type": "function"
    },
    {
      "inputs": [
        {
          "internalType": "address",
          "name": "",
          "type": "address"
        }
      ],
      "name": "userIds",
      "outputs": [
        {
          "internalType": "uint64",
          "name": "",
          "type": "uint64"
        }
      ],
      "stateMutability": "view",
      "type": "function"
    }
  ],
  "bytecode": "0x60e03461014157601f6140ff38819003918201601f19168301916001600160401b03831184841017610145578084926060946040528339810103126101415761004781610159565b90610060604061005960208401610159565b9201610159565b90331561012e575f8054336001600160a01b0319821681178355604051959290916001600160a01b0316907f8be0079c531659141344cd1fd0a4f28419497f9722a3daafe3b4186f6b6457e09080a3600180556001600160a01b0390811660805290811660a0521660c052600a8054600b80546001600160801b03191690556001600160c01b0319169055613f91908161016e82396080518181816101c701528181611dc101526129ac015260a05181610292015260c051818181611d6f015281816129610152612f810152f35b631e4fbdf760e01b5f525f60045260245ffd5b5f80fd5b634e487b7160e01b5f52604160045260245ffd5b51906001600160a01b03821682036101415756fe60806040526004361015610011575f80fd5b5f803560e01c80630ed1e14d146130c9578063102275cc14612fb057806312261ee714612f6c5780631b837ded14612dee5780632199d5cd14612dba5780632b7a71dd14612d7f5780632b956ff714612d3e5780634081db5114612d3e578063616547f114612c685780636901b4591461255f5780636da4606d146102e8578063715018a61461250557806371c11315146120a657806372e1754c146119bc57806375f595281461190857806376cc44d7146117c95780638bfe97c514610e8c5780638da5cb5b14610e655780639243fc6914610e075780639542bb0214610da057806397714b4814610d405780639d05aa6f14610689578063a5055b4314610500578063a941ee4d14610467578063adc009ee14610409578063b0645d7f14610350578063b7789c7414610329578063bd4d83ab146102e8578063bff1f9e1146102c1578063dc4c90d31461027c578063f2fde38b146101f6578063f887ea40146101b15763f99e4ba114610185575f80fd5b346101ae57806003193601126101ae5760206001600160801b03600a5460401c16604051908152f35b80fd5b50346101ae57806003193601126101ae576040517f00000000000000000000000000000000000000000000000000000000000000006001600160a01b03168152602090f35b50346101ae5760203660031901126101ae576102106131e0565b610218613d5c565b6001600160a01b031680156102685781546001600160a01b03198116821783556001600160a01b03167f8be0079c531659141344cd1fd0a4f28419497f9722a3daafe3b4186f6b6457e08380a380f35b631e4fbdf760e01b82526004829052602482fd5b50346101ae57806003193601126101ae576040517f00000000000000000000000000000000000000000000000000000000000000006001600160a01b03168152602090f35b50346101ae57806003193601126101ae5760206001600160401b03600a5416604051908152f35b50346101ae5760203660031901126101ae576020906001600160401b0361030d613193565b16815260048252604060018060a01b0391205416604051908152f35b50346101ae57806003193601126101ae5760206001600160801b03600b5416604051908152f35b50346101ae5760203660031901126101ae576040610120916001600160801b0361037861312b565b16815260056020522080549060026001820154910154906001600160401b03604051938181168552818160401c16602086015260801c1660408401526001600160801b03811660608401526001600160401b038160801c16608084015260c01c60a083015261ffff811660c083015260ff8160101c16151560e083015260018060a01b039060181c16610100820152f35b50346101ae5760403660031901126101ae576001600160401b03604061042d61312b565b926001600160801b0361043e61317d565b9416815260096020522091165f5260205260206001600160401b0360405f205416604051908152f35b50346101ae5760403660031901126101ae5760406104836131e0565b9161048c6131f6565b9260018060a01b031681526002602052209060018060a01b03165f5260205260a060405f20600180831b03815416906001810154906002600180861b039101541690604051928352600180851b038116602084015262ffffff81851c16604084015260b81c60020b60608301526080820152f35b50346101ae5760e03660031901126101ae5761051a6131e0565b6105226131f6565b9060a0366043190112610685576040519161053c83613285565b6044356001600160a01b03811681036106815783526064356001600160a01b0381168103610681576020840190815260843562ffffff8116810361067d576040850190815260a435908160020b8203610679576060860191825260c435936001600160a01b038516850361067557600295608088019586526105bc613d5c565b81816001600160a01b038083169082161161066a575b50506001600160a01b03908116895260208781526040808b209383165f90815293909152909120965187549082166001600160a01b031991821617885593516001880180549351945160b81b62ffffff60b81b1662ffffff60a01b60a09690961b959095169183166001600160d01b031990941693909317179290921790559151939092018054939091169290911691909117905580f35b925090505f806105d2565b8780fd5b8680fd5b8580fd5b8480fd5b8280fd5b50346101ae5760803660031901126101ae576106a361312b565b906024356001600160401b038111610d3c576106c390369060040161335a565b916044356001600160401b038111610685576106e39036906004016132ec565b6064356001600160401b038111610d385736602382011215610d385780600401359261070e846132d5565b9161071c60405193846132b4565b848352602083016024819660051b8301019136831161067557602401905b828210610d28575050506001600160801b031692838552600560205260408520956001600160401b0387541615610d145760ff600288015460101c1615610d005783518015908115610cf4575b50610ce557805180610c735750506005860180546107a481613b13565b91875b828110610c4a575050505b855b8451811015610829576001600160401b036107cf8287613ab9565b5116801580156107f9575b6107e757506001016107b4565b63d35edc1f60e01b8852600452602487fd5b508688526009602052604088206001600160401b0382165f526020526001600160401b0360405f205416156107da565b50600187969593960160016001600160801b03825416016001600160801b038111610c3657906001600160801b036001600160401b0392166001600160801b0319825416178155541693600b546001600160801b03610889818316613acd565b16906001600160801b03191617600b558386526006602052604086206001600160401b0386165f5260205260405f20916001600160401b03804216166001600160401b031984541617835560018301908051906001600160401b038211610c2257600160401b8211610c22576020908354838555808410610bcd575b5001918852602088208160041c91895b838110610b8d5750600f198116900380610b40575b5050505060028201908051906001600160401b038211610b2c57600160401b8211610b2c576020908354838555808410610ad8575b5001918752602087208160021c91885b838110610a9357506003198116900380610a3a575b505050506003019451906001600160401b038211610a2657600160401b8211610a26578554828755808310610a0b575b509484526020842094845b8281106109f7576020868686817f5c1e2b802d1ef94d2ae4b924e8b531546db2cfe59c3986257eb800dc8b8c5cc66040519480a38152f35b6001906020835193019281890155016109bf565b86865260208620610a20918101908401613afd565b866109b4565b634e487b7160e01b85526041600452602485fd5b928893895b818110610a555750505001556003878080610984565b9091946020610a896001926001600160401b03895116908560031b6001600160401b03809160031b9316831b921b19161790565b9601929101610a3f565b898a5b60048110610aab57508382015560010161096f565b86519096916001916020916001600160401b0360068b901b81811b199092169216901b1792019601610a96565b610b0590858b52838b20600380870160021c820192601888831b1680610b0b575b500160021c0190613afd565b8a61095f565b610b26905f198601908154905f199060200360031b1c169055565b8f610af9565b634e487b7160e01b88526041600452602488fd5b9289938a5b818110610b5a5750505001558780808061092a565b9091946020610b8360019261ffff8951169085851b61ffff809160031b9316831b921b19161790565b9601929101610b45565b8a8b5b60108110610ba5575083820155600101610915565b865190969160019160209161ffff60048b901b81811b199092169216901b1792019601610b90565b610bfb90858c52838c20600f80870160041c820192601e8860011b1680610c01575b500160041c0190613afd565b8b610905565b610c1c905f198601908154905f199060200360031b1c169055565b5f610bef565b634e487b7160e01b89526041600452602489fd5b634e487b7160e01b87526011600452602487fd5b8061ffff610c5a60019385613b66565b90549060031b1c16610c6c8287613ab9565b52016107a7565b60048895929693979498015403610cd657829683975b8651891015610cb557610cad60019161ffff610ca58c8b613ab9565b511690613a7f565b980197610c89565b61271091949793969295985003156107b25763108cef9d60e31b8652600486fd5b63108cef9d60e31b8352600483fd5b630592b4c160e21b8652600486fd5b9050835114155f610787565b636ca1ff8760e01b86526004859052602486fd5b63598756b160e11b86526004859052602486fd5b813581526020918201910161073a565b8380fd5b5080fd5b50346101ae5760403660031901126101ae576001600160401b036040610d6461312b565b926001600160801b03610d7561317d565b9416815260096020522091165f5260205260206001600160401b0360405f2054161515604051908152f35b50346101ae5760403660031901126101ae57610dba613193565b90602435916001600160801b0383168303610d3c576001600160801b03916001600160401b0360409216815260076020522091165f52602052602060ff60405f2054166040519015158152f35b50346101ae5760403660031901126101ae576001600160401b036040610e2b61312b565b926001600160801b03610e3c61317d565b9416815260066020522091165f5260205260206001600160401b0360405f205416604051908152f35b50346101ae57806003193601126101ae57546040516001600160a01b039091168152602090f35b50346101ae5760a03660031901126101ae57610ea66131e0565b6024356001600160401b03811161068557610ec59036906004016132ec565b916044356001600160401b038111610d3c57610ee590369060040161335a565b906064359361ffff8516809503610d3c57608435906001600160401b03821690818303610d38578051600281109081156117bd575b506117ae57811561179f57839684975b8651891015610f4e57610f4660019161ffff610ca58c8b613ab9565b980197610f2a565b6127108891979697036117905761104a6001600160801b03600a54600160401b600160c01b03610f82838360401c16613acd565b60401b1690600160401b600160c01b0319161780600a5560401c169586895260056020526001600160401b0361102b60408b2097610ff083421684811685198c5416178b558a9067ffffffffffffffff60401b82549160401b169067ffffffffffffffff60401b1916179055565b8854608084811b19919091168a5560018a0180546001600160c01b0319169590911b67ffffffffffffffff60801b1694909417845542613a7f565b82546001600160c01b0316911660c01b6001600160c01b031916179055565b6002840180546301000000600160b81b031962ffffff199190911690931762010000179290921660189190911b6301000000600160b81b03161790558051916110ab611095846132d5565b936110a360405195866132b4565b8085526132d5565b6020840190601f1901368237600482019351906001600160401b038211610b2c57600160401b8211610b2c57845482865580831061173c575b5090848852602088208160021c91895b8381106116f75750600319811690038061169f575b505050506111178251613b13565b805160058301916001600160401b038211610c2257600160401b8211610c2257602090835483855580841061164b575b500190828952602089208160041c918a5b83811061160b5750600f1981169003806115be575b50505050825191611180611095846132d5565b6020840190601f1901368237600682019351906001600160401b03821161157057600160401b8211611570578454828655808310611598575b50848a5260208a208a5b838110611584575050505083519060036111df611095846132d5565b602084019290601f1901368437019151906001600160401b03821161157057600160401b821161157057825482845580831061151e575b50918952602089208160051c918a5b8381106114d95750601f198116900380611490575b5050505086959295926001600160801b038616935b8751811015611460576001600160401b0361126a828a613ab9565b511680158015611443575b61143157878a52600960205260408a206001600160401b0382165f526020526001600160401b0360405f20541661141f57806112d26112b4848a613b45565b81939154906001600160401b03809160031b9316831b921b19161790565b905561ffff6112e18385613ab9565b51166113096112f08487613b66565b819391549061ffff809160031b9316831b921b19161790565b9055611315828661398e565b8154905f199060031b1b191690556001820180831161140b57888b52600960205260408b206001600160401b0383165f526020526001600160401b038060405f209216166001600160401b0319825416179055808a52600760205260408a20865f5260205260405f20600160ff198254161790558952600860205260408920805490600160401b8210156113f757600182018082558210156113e35790600192918b5260208b2081841c0190608082549160071b16906001600160801b038b831b921b19161790550161124f565b634e487b7160e01b8b52603260045260248bfd5b634e487b7160e01b8b52604160045260248bfd5b634e487b7160e01b8b52601160045260248bfd5b63b65766e160e01b8a52600452602489fd5b632561b23b60e21b8a52600452602489fd5b50808a52600460205260408a20546001600160a01b031615611275565b60208988807f1fbdf49e7b4580db90f7157790537f52f1bc9ed3ad16759426c64096aedca1476040519380a28152f35b928a938b5b8181106114aa5750505001558780808061123a565b90919460206114cf6001928489511515919060ff809160031b9316831b921b19161790565b9601929101611495565b8b8c5b602081106114f1575083820155600101611225565b959060206115156001928985511515919060ff809160031b9316831b921b19161790565b920196016114dc565b61154990848c5260208c20601f80860160051c8201928187168061154f575b500160051c0190613afd565b8a611216565b61156a905f198601908154905f199060200360031b1c169055565b8f61153d565b634e487b7160e01b8a52604160045260248afd5b6001906020845194019381840155016111c3565b858b528260208c2091820191015b8181106115b357506111b9565b8b81556001016115a6565b928a938b5b8181106115d85750505001558780808061116d565b909194602061160160019261ffff8951169085851b61ffff809160031b9316831b921b19161790565b96019291016115c3565b8b8c5b60108110611623575083820155600101611158565b865190969160019160209161ffff60048b901b81811b199092169216901b179201960161160e565b61167890858c52838c20600f80870160041c820192601e8860011b168061167e57500160041c0190613afd565b8a611147565b611699905f198601908154905f199060200360031b1c169055565b8f610bef565b9289938a5b8181106116b957505050015586808080611109565b90919460206116ed6001926001600160401b03895116908560031b6001600160401b03809160031b9316831b921b19161790565b96019291016116a4565b8a8b5b6004811061170f5750838201556001016110f4565b86519096916001916020916001600160401b0360068b901b81811b199092169216901b17920196016116fa565b61176990868a5260208a20600380860160021c820192601887831b168061176f57500160021c0190613afd565b886110e4565b61178a905f198601908154905f199060200360031b1c169055565b8d610af9565b63108cef9d60e31b8752600487fd5b633f1f6d2d60e01b8452600484fd5b630592b4c160e21b8452600484fd5b9050855114155f610f1a565b50346101ae5760203660031901126101ae576001600160401b036117eb613193565b16808252600460205260408220546001600160a01b0316156118f6578152600860205260408120604051808160208454928381520180948652602086209286905b8060018301106118c7576118559454918181106118ad575b1061189f575b5093929303836132b4565b604051928392602084019060208552518091526040840192915b81811061187d575050500390f35b82516001600160801b031684528594506020938401939092019160010161186f565b60801c81526020015f61184a565b9260206001916001600160801b0385168152019301611844565b916002919350604060019186546001600160801b038116825260801c602082015201940192018492939161182c565b632561b23b60e21b8252600452602490fd5b50346101ae5760203660031901126101ae576001600160801b0361192a61312b565b16808252600560205260408220906001600160401b03825416156119aa575060048101916005835492019182540361199b575061199761197561196f611989946133c3565b926134ca565b604051938493604085526040850190613141565b9083820360208501526131a9565b0390f35b630592b4c160e21b8152600490fd5b63598756b160e11b8352600452602482fd5b506001600160801b036119ce3661324f565b91906119d8613b87565b33845260036020526119f86001600160401b0360408620541615156139b7565b168083526005602052611a276006604085200133855260036020526001600160401b036040862054169061398e565b90549060031b1c9183831215612055578184526005602052611a656006604086200133865260036020526001600160401b036040872054169061398e565b81545f1960039290921b9190911b191690556001600160a01b0316600160ff1b831461204157818452600560205260408420600201548385039060181c6001600160a01b03168203611b4b575b81611b0c57611ac49150341015613a3b565b33835260036020527f25fcbdc702753d31d7fa9cfeaa4715deac953a437867a2a8432ee86a693c0e6460206001600160401b0360408620541693604051908152a36001805580f35b611b4691604051916323b872dd60e01b6020840152336024840152306044840152606483015260648252611b416084836132b4565b613ee3565b611ac4565b828552600560205260408520600201548590611b739060181c6001600160a01b0316846138b6565b80516001600160a01b031615158061202b575b611b8f906139f9565b848252600560205260018060a01b03600260408420015460181c1684106001600160801b03841691604051600160fc1b602082015260018152611bd36021826132b4565b611bdb613ba7565b604051600160fb1b6020820152600360fa1b6021820152600f60f81b60228201526003815294909290611c0f6023876132b4565b841561200757815160208301516001600160a01b039081169391169190611c9190611c9f905b611c3d613be1565b9a60209960405191611c4f8c846132b4565b825260405192611c5e84613285565b83528a8301528460408301526001600160801b03606083015260808201526040519283918a808401526040830190613c3f565b03601f1981018352826132b4565b611ca889613a8c565b52611cb288613a8c565b5061012c4201804211611ff35790611d4465ffffffffffff8f97969594931693604051611d0181611c91878d830160206001600160801b0391939293604081019460018060a01b031681520152565b611d0a8c613a99565b52611d148b613a99565b50604080516001600160a01b039092168a83019081526001600160801b0390941660208501529092839101611c91565b611d4d89613aa9565b52611d5788613aa9565b5060405163095ea7b360e01b81526001600160a01b037f00000000000000000000000000000000000000000000000000000000000000008116600483018190526001600160801b03602484015292169891979087816044818a8e5af18015611fb657611fc1575b507f00000000000000000000000000000000000000000000000000000000000000006001600160a01b031697803b1561067957868960848c8360405195869485936387517c4560e01b8552600485015260248401526001600160801b0360448401528960648401525af1908115611fb6578791611fa1575b5050611e4d90611c916040519384928a8401613cf2565b611e5684613a8c565b52611e6083613a8c565b506040516370a0823160e01b81523060048201529585876024818b5afa968715611f96578597611f63575b50803b1561068157611eb79385809460405196879586948593630d64d59360e21b855260048501613d17565b03925af18015611f5857611f43575b505080602493604051948580926370a0823160e01b82523060048301525afa908115611f38578891611f04575b50611efe9250613d4f565b50611ab2565b905082813d8311611f31575b611f1a81836132b4565b81010312611f2d57611efe91515f611ef3565b5f80fd5b503d611f10565b6040513d8a823e3d90fd5b81611f4d916132b4565b61067557875f611ec6565b6040513d84823e3d90fd5b86809298508196503d8311611f8f575b611f7d81836132b4565b81010312611f2d578b9351955f611e8b565b503d611f73565b6040513d87823e3d90fd5b81611fab916132b4565b61067d57855f611e36565b6040513d89823e3d90fd5b8781813d8311611fec575b611fd681836132b4565b8101031261067957518015158114611dbe578680fd5b503d611fcc565b634e487b7160e01b8e52601160045260248efd5b602082015182516001600160a01b039081169391169190611c9190611c9f90611c35565b5060208101516001600160a01b03161515611b86565b634e487b7160e01b84526011600452602484fd5b60405162461bcd60e51b815260206004820152602360248201527f5573657220686173206e6f206465627420696e207468652063616b6520746f2060448201526270617960e81b6064820152608490fd5b5060203660031901126101ae576001600160801b036120c361312b565b168082526005602052604082209081546001600160401b038116156124f15760ff600284015460101c16156124dd5733845260036020526001600160401b03604085205416801580156124ad575b61249b57506001600160401b039060801c1692600183019283546001600160801b03811680158015612491575b61247d576001600160401b031061246e576001600160401b03600191169561216583613d9d565b016001600160401b03811161245a5760068201959460048301915b6001600160401b0381168781116123cf57868652600660205260408620815f5260205260405f20906001600160401b03825416156123b857508354906001810191808354036123a95760028201908154938415801561239b575b61238c57899060038b9501945b86811061236757508d8b805b8581106122fb575093505050505b83811061221a5750505050612215906137d4565b612180565b6001600160401b0361222c8284613b45565b90549060031b1c168a8a52600960205260408a206001600160401b0382165f526020526001600160401b0360405f2054169081156122e9575061229a6001600160401b0361227a8f93613970565b16612294612288858861398e565b90549060031b1c613f3b565b9261398e565b81929154808260031b1c8d84820394128185128116918513901516176122d5575f1960039290921b91821b191691901b179055600101612201565b634e487b7160e01b8d52601160045260248dfd5b63d35edc1f60e01b8b5260045260248afd5b61232a61271060019361232261ffff612314868a613b66565b90549060031b1c1689613aea565b905004613f3b565b61235d612337838661398e565b61234a8294925492838360031b1c613d82565b919060031b91821b915f19901b19161790565b9055018c906121f3565b91612385600191612378858961398e565b90549060031b1c90613a7f565b92016121e7565b630592b4c160e21b8a5260048afd5b5060038401548514156121da565b63108cef9d60e31b8852600488fd5b6317e7214f60e31b87526004889052602452604486fd5b845467ffffffffffffffff60801b60808a901b1677ffffffffffffffffffffffffffffffff00000000000000001990911667ffffffffffffffff60401b4260401b16171785558587612433856001600160401b0361102b81835460801c1642613a7f565b7f8777a1f1bec59d7313d557b50cf6e83ca0e7ee87ee55edd94034ef35ac010d758280a280f35b634e487b7160e01b83526011600452602483fd5b630625040160e01b8352600483fd5b63245afb6f60e11b84526004859052602484fd5b508681111561213e565b63d35edc1f60e01b8552600452602484fd5b508285526009602052604085206001600160401b0382165f526020526001600160401b0360405f20541615612111565b636ca1ff8760e01b84526004829052602484fd5b63598756b160e11b84526004829052602484fd5b50346101ae57806003193601126101ae5761251e613d5c565b80546001600160a01b03198116825581906001600160a01b03167f8be0079c531659141344cd1fd0a4f28419497f9722a3daafe3b4186f6b6457e08280a380f35b5034611f2d576001600160801b036125763661324f565b9190612580613b87565b335f5260036020526125a06001600160401b0360405f20541615156139b7565b16805f5260056020526125cf600660405f2001335f5260036020526001600160401b0360405f2054169061398e565b90549060031b1c915f831315612c1357815f52600560205261260d600660405f2001335f5260036020526001600160401b0360405f2054169061398e565b8154905f199060031b1b1916905560018060a01b0316815f52600560205260018060a01b03600260405f20015460181c168103612753575b8061271f575061265782471015613a3b565b8280808085335af13d1561271a573d6001600160401b038111610a26576040519061268c601f8201601f1916602001836132b4565b81528460203d92013e5b156126e4575b33835260036020527fdee94a2032d2d1bc10c757d159efe2c902ac78910f9600eb5f20cd28bda7514c60206001600160401b0360408620541693604051908152a36001805580f35b60405162461bcd60e51b815260206004820152600e60248201526d14185e5b595b9d0819985a5b195960921b6044820152606490fd5b612696565b60405163a9059cbb60e01b60208201523360248201526044808201859052815261274e91611b416064836132b4565b61269c565b5f8281526005602052604090206002015461277a9060181c6001600160a01b0316826138b6565b80516001600160a01b0316151580612bfd575b612796906139f9565b825f52600560205260018060a01b03600260405f20015460181c1682106001600160801b03851690604051600160fc1b6020820152600181526127da6021826132b4565b6127e2613ba7565b604051600360f91b6020820152600360fa1b6021820152600f60f81b6022820152600381529091906128156023826132b4565b8315612be257855160208701516001600160a01b03918216979116915b611c91612895612840613be1565b93602098604051906128528b836132b4565b5f82526040519261286284613285565b83528a8301528a60408301526001600160801b03606083015260808201526040519283918a808401526040830190613c3f565b61289e83613a8c565b526128a882613a8c565b5061012c4201804211612bce57604080516001600160a01b038b168982019081526001600160801b038b16602082015265ffffffffffff939093169a9290916128f391839101611c91565b6128fc84613a99565b5261290683613a99565b50604080516001600160a01b0386168982019081526001600160801b036020820152909161293691839101611c91565b61293f84613aa9565b5261294983613aa9565b5060405163095ea7b360e01b81526001600160a01b037f0000000000000000000000000000000000000000000000000000000000000000811660048301819052602483018b9052921698919088816044815f8e5af18015612b9157612b9c575b507f00000000000000000000000000000000000000000000000000000000000000006001600160a01b031698813b15611f2d5760848a915f80948e60405197889687956387517c4560e01b875260048701526024860152604485015260648401525af18015612b9157612b6f575b5090612a328c95949392611c916040519384928a8401613cf2565b612a3b84613a8c565b52612a4583613a8c565b506040516370a0823160e01b81523060048201526001600160a01b039190911696909585876024818b5afa968715611f96578597612b3c575b50803b1561068157612aaa9385809460405196879586948593630d64d59360e21b855260048501613d17565b03925af18015611f5857612b27575b505080602493604051948580926370a0823160e01b82523060048301525afa908115611fb6578791612af7575b50612af19250613d4f565b50612645565b905082813d8311612b20575b612b0d81836132b4565b81010312611f2d57612af191515f612ae6565b503d612b03565b81612b31916132b4565b61067957865f612ab9565b86809298508196503d8311612b68575b612b5681836132b4565b81010312611f2d578a9351955f612a7e565b503d612b4c565b612a329c505f612b84919695949392966132b4565b5f9b949091929394612a17565b6040513d5f823e3d90fd5b8881813d8311612bc7575b612bb181836132b4565b81010312611f2d575180151581146129a9575f80fd5b503d612ba7565b634e487b7160e01b5f52601160045260245ffd5b602086015186516001600160a01b0391821697911691612832565b5060208101516001600160a01b0316151561278d565b60405162461bcd60e51b815260206004820152602760248201527f5573657220686173206e6f2063726564697420696e207468652063616b6520746044820152666f20636c61696d60c81b6064820152608490fd5b34611f2d576040366003190112611f2d57612c8161312b565b6001600160801b03612c9161317d565b911690815f52600560205260405f20916001600160401b0383541615612d2c575f52600960205260405f206001600160401b0382165f526020526001600160401b0360405f205416908115612d10576020612d018460066001600160401b03612cf987613970565b16910161398e565b90549060031b1c604051908152f35b6001600160401b039063d35edc1f60e01b5f521660045260245ffd5b63598756b160e11b5f5260045260245ffd5b34611f2d576020366003190112611f2d576001600160a01b03612d5f6131e0565b165f52600360205260206001600160401b0360405f205416604051908152f35b34611f2d576040366003190112611f2d5760a0612dab612d9d6131e0565b612da56131f6565b906138b6565b612db8604051809261320c565bf35b34611f2d576020366003190112611f2d576020612ddd612dd86131e0565b6137f1565b6001600160401b0360405191168152f35b34611f2d576040366003190112611f2d57612e0761312b565b6001600160801b03612e1761317d565b911690815f5260056020526001600160401b0360405f20541615612f5957815f52600660205260405f206001600160401b0382165f5260205260405f20906001600160401b03825416928315612f3957505060038101612e856002612e7e600185016134ca565b93016133c3565b92604051938480956020855491828152019081955f5260205f20905f5b818110612f205750505091612ebe612ee09260209403886132b4565b612ed3604051966080885260808801906131a9565b9086820384880152613141565b948486036040860152519485815201915f945b808610612f0857505082935060608301520390f35b90926020806001928651815201940195019490612ef3565b8254845289945060209093019260019283019201612ea2565b6001600160401b0392506317e7214f60e31b5f526004521660245260445ffd5b5063598756b160e11b5f5260045260245ffd5b34611f2d575f366003190112611f2d576040517f00000000000000000000000000000000000000000000000000000000000000006001600160a01b03168152602090f35b34611f2d576020366003190112611f2d576001600160801b03612fd161312b565b16805f52600560205260405f20906001600160401b0382541615612d2c5750600681016130056004600284015493016133c3565b9060405192838460208454928381520180945f5260205f20925f5b8181106130b0575050613035925003856132b4565b602061304c6040519460a0865260a0860190613141565b9484860382860152519485815201915f945b80861061309857505061ffff81166040840152601081901c60ff161515606084015260181c6001600160a01b031660808301528190039150f35b9092602080600192865181520194019501949061305e565b8454835260019485019489945060209093019201613020565b34611f2d576020366003190112611f2d576001600160801b036130ea61312b565b16805f52600560205260405f20906001600160401b0382541615612d2c57611997613117600484016133c3565b604051918291602083526020830190613141565b600435906001600160801b0382168203611f2d57565b90602080835192838152019201905f5b81811061315e5750505090565b82516001600160401b0316845260209384019390920191600101613151565b602435906001600160401b0382168203611f2d57565b600435906001600160401b0382168203611f2d57565b90602080835192838152019201905f5b8181106131c65750505090565b825161ffff168452602093840193909201916001016131b9565b600435906001600160a01b0382168203611f2d57565b602435906001600160a01b0382168203611f2d57565b80516001600160a01b03908116835260208083015182169084015260408083015162ffffff169084015260608083015160020b9084015260809182015116910152565b6040906003190112611f2d576004356001600160801b0381168103611f2d57906024356001600160a01b0381168103611f2d5790565b60a081019081106001600160401b038211176132a057604052565b634e487b7160e01b5f52604160045260245ffd5b90601f801991011681019081106001600160401b038211176132a057604052565b6001600160401b0381116132a05760051b60200190565b9080601f83011215611f2d57813590613304826132d5565b9261331260405194856132b4565b82845260208085019360051b820101918211611f2d57602001915b81831061333a5750505090565b82356001600160401b0381168103611f2d5781526020928301920161332d565b9080601f83011215611f2d57813590613372826132d5565b9261338060405194856132b4565b82845260208085019360051b820101918211611f2d57602001915b8183106133a85750505090565b823561ffff81168103611f2d5781526020928301920161339b565b90604051918281549182825260208201905f5260205f20925f905b8060038301106134785761341494549181811061345e575b818110613441575b818110613424575b10613416575b5003836132b4565b565b60c01c81526020015f61340c565b9260206001916001600160401b038560801c168152019301613406565b9260206001916001600160401b038560401c1681520193016133fe565b9260206001916001600160401b03851681520193016133f6565b916004919350608060019186546001600160401b03811682526001600160401b038160401c1660208301526001600160401b0381841c16604083015260c01c60608201520194019201859293916133de565b90604051918281549182825260208201905f5260205f20925f905b80600f8301106136ec576134149454918181106136d7575b8181106136bf575b8181106136a8575b818110613690575b818110613678575b818110613660575b818110613648575b818110613630575b818110613618575b818110613600575b8181106135e8575b8181106135d0575b8181106135b8575b8181106135a0575b818110613588575b1061357a575003836132b4565b60f01c81526020015f61340c565b92602060019161ffff8560e01c16815201930161356d565b92602060019161ffff8560d01c168152019301613565565b92602060019161ffff8560c01c16815201930161355d565b92602060019161ffff8560b01c168152019301613555565b92602060019161ffff8560a01c16815201930161354d565b92602060019161ffff8560901c168152019301613545565b92602060019161ffff8560801c16815201930161353d565b92602060019161ffff8560701c168152019301613535565b92602060019161ffff8560601c16815201930161352d565b92602060019161ffff8560501c168152019301613525565b92602060019161ffff8560401c16815201930161351d565b92602060019161ffff8560301c168152019301613515565b92602060019161ffff85831c16815201930161350d565b92602060019161ffff8560101c168152019301613505565b92602060019161ffff851681520193016134fd565b916010919350610200600191865461ffff8116825261ffff81861c16602083015261ffff8160201c16604083015261ffff8160301c16606083015261ffff8160401c16608083015261ffff8160501c1660a083015261ffff8160601c1660c083015261ffff8160701c1660e083015261ffff8160801c1661010083015261ffff8160901c1661012083015261ffff8160a01c1661014083015261ffff8160b01c1661016083015261ffff8160c01c1661018083015261ffff8160d01c166101a083015261ffff8160e01c166101c083015260f01c6101e08201520194019201859293916134e5565b6001600160401b03166001600160401b038114612bce5760010190565b6001600160a01b03165f818152600360205260409020546001600160401b031661389e57600a546001600160401b0361382b8183166137d4565b1680916001600160401b03191617600a55815f5260036020526001600160401b0360405f2091166001600160401b03198254161790556001600160401b03600a54165f52600460205260405f20906bffffffffffffffffffffffff60a01b8254161790556001600160401b03600a541690565b5f5260036020526001600160401b0360405f20541690565b5f60806040516138c581613285565b82815260208101839052604081018390526060810183905201526001600160a01b038281169082161161396a575b60018060a01b03165f52600260205260405f209060018060a01b03165f5260205260405f206040519061392582613285565b80546001600160a01b0390811683526001820154808216602085015260a081901c62ffffff16604085015260b81c600290810b60608501529091015416608082015290565b906138f3565b6001600160401b035f19911601906001600160401b038211612bce57565b80548210156139a3575f5260205f2001905f90565b634e487b7160e01b5f52603260045260245ffd5b156139be57565b60405162461bcd60e51b8152602060048201526013602482015272155cd95c881b9bdd081c9959da5cdd195c9959606a1b6044820152606490fd5b15613a0057565b60405162461bcd60e51b8152602060048201526013602482015272141bdbdb081b9bdd0818dbdb999a59dd5c9959606a1b6044820152606490fd5b15613a4257565b60405162461bcd60e51b8152602060048201526015602482015274125b9cdd59999a58da595b9d08115512081cd95b9d605a1b6044820152606490fd5b91908201809211612bce57565b8051156139a35760200190565b8051600110156139a35760400190565b8051600210156139a35760600190565b80518210156139a35760209160051b010190565b6001600160801b03166001600160801b038114612bce5760010190565b81810292918115918404141715612bce57565b818110613b08575050565b5f8155600101613afd565b90613b1d826132d5565b613b2a60405191826132b4565b8281528092613b3b601f19916132d5565b0190602036910137565b91909180548310156139a3575f52601860205f208360021c019260031b1690565b91909180548310156139a3575f52601e60205f208360041c019260011b1690565b600260015414613b98576002600155565b633ee5aeb560e01b5f5260045ffd5b60408051909190613bb883826132b4565b6001815291601f1901825f5b828110613bd057505050565b806060602080938501015201613bc4565b60405160809190613bf283826132b4565b6003815291601f1901825f5b828110613c0a57505050565b806060602080938501015201613bfe565b805180835260209291819084018484015e5f828201840152601f01601f1916010190565b906101206080613c9793613c5484825161320c565b6020810151151560a08501526001600160801b0360408201511660c08501526001600160801b0360608201511660e0850152015191816101008201520190613c1b565b90565b9080602083519182815201916020808360051b8301019401925f915b838310613cc557505050505090565b9091929394602080613ce3600193601f198682030187528951613c1b565b97019301930191939290613cb6565b9091613d09613c9793604084526040840190613c1b565b916020818403910152613c9a565b91613d4865ffffffffffff91613d3a604094979697606087526060870190613c1b565b908582036020870152613c9a565b9416910152565b91908203918211612bce57565b5f546001600160a01b03163303613d6f57565b63118cdaa760e01b5f523360045260245ffd5b9190915f8382019384129112908015821691151617612bce57565b6002810161ffff815416158015613ecb575b613ec75760018201548060c01c80421115613ec157613dd66001600160401b039142613d4f565b9160801c168015613ead5780820490819206613e9a575b508015613e92575b5f5b600684018054821015613e8b578181613e1460069460019461398e565b90549060031b1c8683875f841315613e8157613e7693613e54612710613e4e613e5a94613e4961ffff613e6099541686613aea565b613aea565b04613f3b565b90613d82565b9361398e565b819391549060031b91821b915f19901b19161790565b90555b019050613df7565b5050505050613e79565b5050505050565b506001613df5565b905060018101809111612bce575f613ded565b634e487b7160e01b5f52601260045260245ffd5b50505050565b5050565b506001600160401b03600183015460801c1615613daf565b905f602091828151910182855af115612b91575f513d613f3257506001600160a01b0381163b155b613f125750565b635274afe760e01b5f9081526001600160a01b0391909116600452602490fd5b60011415613f0b565b6001600160ff1b038111613f4c5790565b630625040160e01b5f5260045ffdfea26469706673582212207a82b6a9da0c57d91c62f8d4b99d1d69485944e3086500b8fbd5399d4c4f99e864736f6c634300081a0033",
  "linkReferences": {},
  "deployedLinkReferences": {}
}